:020000040800F2
:100000003811002045010008391F00080B1E0008A8
:10001000751E00080F020008EF2200080000000013
:100020000000000000000000000000005701000870
:1000300049020008000000005B01000809200008D8
:100040005F0100085F0100085F0100085F01000810
:100050005F0100085F0100085F0100085F01000800
:100060005F0100085F0100085F0100085F010008F0
:100070005F010008110200085F0100081D0200086E
:100080005F0100085F0100085F0100085F010008D0
:100090005F0100085F0100085F0100085F010008C0
:1000A0005F0100085F0100085F0100085F010008B0
:1000B0005F0100085F0100085F0100085F010008A0
:1000C0005F0100085F0100085F0100085F01000890
:1000D0005F0100085F0100085F0100085F01000880
:1000E0005F0100085F0100085F0100085F01000870
:1000F0005F0100085F0100085F0100085F01000860
:100100005F0100085F0100085F0100085F0100084F
:100110005F0100085F0100085F0100085F0100083F
:100120005F0100085F0100085F0100085F0100082F
:10013000DFF80CD000F020F8004800471D2400082C
:10014000381100200648804706480047FEE7FEE7D2
:10015000FEE7FEE7FEE7FEE7FEE7FEE7FEE7FEE777
:100160007520000831010008421C10F8011B00290D
:10017000FBD1801A70470000064C074D06E0E0688E
:1001800040F0010394E8070098471034AC42F6D3DE
:10019000FFF7D2FF742500089425000870B50222ED
:1001A0004FF44071FF2000F0D3F84FF48272911E9B
:1001B000022000F0CDF805224FF40F71022000F06C
:1001C000C7F84FF406744FF48A722146022000F0FB
:1001D000BFF8A51C40F215122946022000F0B8F81D
:1001E00040F20112211F022000F0B2F840F2FF128B
:1001F0004FF44371022000F0ABF80121284601F0D2
:100200003BFE2046BDE87040012101F035BEFEE70F
:10021000014800F0B3B90000C0000020014800F020
:10022000ADB900008800002010B504686360436821
:10023000102B04D0036899600068C26010BD036889
:100240009A600068C16010BDFEE700002DE9F0472C
:1002500088B03A234FF0010A05AF8DF814308DF8BD
:10026000150003208DF81600080A8DF817008DF888
:100270001810100A8DF819008DF81A200621781C24
:1002800002F063F98DF81B004FF000098DF81C9007
:1002900000249DF814000125E8468DF8000010E0C8
:1002A000385D000902F034F9691CCEB208F8050087
:1002B000385D00F00F0002F02BF9711CCDB208F888
:1002C00006002046641CE4B20728E9D30D21681C0F
:1002D000C0B208F805100A22411CC9B208F8002073
:1002E00008F801906846FFF73FFF82B20F23694686
:1002F0000F4801F01EFD0F4C84F8009000F0C6FD81
:10030000054611E000F0C2FD6188401B88420BD316
:1003100084F800A008A001F0EBFF69460BA001F0F3
:10032000E7FF08B0BDE8F08720780028EAD0F8E7BA
:10033000F80000200A000020CDA8D1B6B3ACCAB1A5
:1003400020CAFDBEDDD6A13A0A00000025730A00CE
:100350002DE9F04788B03A234FF0010A05AF8DF838
:1003600014308DF8150006208DF81600080A8DF857
:1003700017008DF81810100A8DF819008DF81A2042
:100380000621781C02F0E1F88DF81B004FF00009FF
:100390008DF81C9000249DF814000125E8468DF886
:1003A000000011E0385D000902F0B2F8691CCEB21D
:1003B00008F80500385D00F00F0002F0A9F80146CA
:1003C000701CC5B208F806102046641CE4B2072869
:1003D000E8D30D21681CC0B208F805100A22411CA0
:1003E000C9B208F8002008F801906846FFF7BCFE83
:1003F00082B20F236946104801F09BFC0F4C84F831
:10040000009000F043FD054611E000F03FFD6188DB
:10041000401B88420BD384F800A009A001F068FFBC
:1004200069460CA001F064FF08B0BDE8F0872078B1
:100430000028EAD0F8E70000F80000200A000020B9
:10044000CDA8D1B6B3ACCAB120CAFDBEDDD6A13AA3
:100450000A00000025730A002DE9F04F93B03A25F9
:100460000EAC8DF838508DF8390010208DF83A0018
:10047000080A8DF83B008DF83C10100A8DF83D00FD
:100480008DF83E2050008DF83F00180A8DF840008E
:100490004FF00A0B8DF84130180E8DF84200180C01
:1004A0008DF843000B21601C02F04FF84FF00D0A4D
:1004B0008DF844004FF000098DF8459000249DF818
:1004C000380001250DF104088DF804000EAF10E08E
:1004D000385D000902F01CF8691CCEB208F805006E
:1004E000385D00F00F0002F013F8711CCDB208F86F
:1004F00006002046641CE4B20C28E9D3681CC0B294
:1005000008F805A0411CC9B208F800B008F801902D
:1005100001A8FFF729FE82B20F2301A90F4801F0BD
:1005200008FC0F4C84F8009000F0B0FC054611E088
:1005300000F0ACFC6188401B88420BD30120207086
:1005400008A001F0D5FE01A90BA001F0D1FE13B067
:10055000BDE8F08F20780028EAD0F8E7F800002006
:100560000A000020CDA8D1B6B3ACCAB120CAFDBEE6
:10057000DDD6A13A0A00000025730A002DE9F05FDC
:100580000446F94AF84DF84EF74FD114DFF8D883F6
:10059000DFF8D493DFF8D0A320680B02783D643EE7
:1005A000503FDFF8C8B34FF4004EA8F13C08A9F162
:1005B0002809AAF1140A904236D9EC4A083AD2F82E
:1005C00000C0A84201D108222BE0B04201D1802214
:1005D00027E0B84201D10A4623E0404501D17246E6
:1005E0001FE0484501D11A461BE0504502D14FF4A7
:1005F000000216E0584501D1082212E0DB4A14320D
:10060000904201D180220CE0D84A2832904201D198
:100610000A4606E0D54A3C32904201D1724600E0DB
:100620001A460CEA020C3AE0CF4A803AD2F800C0EF
:10063000A84201D1082230E0B04201D180222CE052
:10064000B84201D10A4628E0404501D1724624E073
:10065000484501D11A4620E0504502D14FF400022E
:100660001BE0C14A904201D1020516E0584501D174
:10067000082212E0BD4A1432904201D180220CE0DF
:10068000BA4A2832904201D10A4606E0B74A3C32C3
:10069000904201D1724600E01A460CEA020CBCF10D
:1006A000000F7FD00268D24312077BD4026822F089
:1006B00008020260AC4A206890422FD9A84201D1BA
:1006C000082127E0B04201D1802123E0B84221D0A7
:1006D000404501D171461DE0484501D1194619E058
:1006E000504502D14FF4000114E0584501D10821D2
:1006F00010E09E4A1432904201D180210AE09B4AC8
:100700002832904206D099493C31884201D1714645
:1007100000E019469548001F016033E0A84201D16E
:1007200008212CE0B04201D1802128E0B84226D037
:10073000404501D1714622E0484501D119461EE0ED
:10074000504502D14FF4000119E0904202D14FF020
:10075000006114E0584501D1082110E0834A1432A9
:10076000904201D180210AE0804A2832904206D08E
:100770007E493C31884201D1714600E019467A48F1
:1007800080384160606B40F001006063042084F8B1
:100790002100002084F82000216B09B1204600E0F0
:1007A00000E08847704A206811150B014FF4802E35
:1007B000904236D96D4A083AD2F800C0A84201D119
:1007C00004222BE0B04201D1402227E0B84201D1FF
:1007D0000A4623E0404501D11A461FE0484501D1B1
:1007E00072461BE0504502D14FF4800216E0584596
:1007F00001D1042212E05D4A1432904201D140221C
:100800000CE05A4A2832904201D10A4606E0574A83
:100810003C32904201D11A4600E072460CEA020CCA
:100820003AE0514A803AD2F800C0A84201D10422ED
:1008300030E0B04201D140222CE0B84201D10A465A
:1008400028E0404501D11A4624E0484501D17246CE
:1008500020E0504502D14FF480021BE0424A904212
:1008600001D1C20416E0584501D1042212E03F4AEA
:100870001432904201D140220CE03C4A283290428E
:1008800001D10A4606E0394A3C32904201D11A466B
:1008900000E072460CEA020CBCF1000F7CD002684A
:1008A000D243520778D40268920603D4026822F039
:1008B000040202602C4A206890422FD9A84201D13C
:1008C000042127E0B04201D1402123E0B84221D0E9
:1008D000404501D119461DE0484501D1714619E056
:1008E000504502D14FF4800114E0584501D1042154
:1008F00010E01E4A1432904201D140210AE01B4A06
:100900002832904206D019493C31884201D119461B
:1009100000E071461548001F016036E0A84201D191
:10092000042130E0B04201D140212CE0B8422AD06D
:10093000404501D1194626E0484501D1714622E0E3
:10094000504502D14FF480011DE0904202D14FF09A
:10095000806118E0584501D1042114E0034A1432A3
:10096000904206D140210EE080000240080402407F
:1009700012E08C4A904206D08A491431884201D153
:10098000194600E0714688484160112084F8210032
:10099000E16A09B120468847DFF80CC24FF40071C4
:1009A00020680CF1800C0B01604537D97D4A303A44
:1009B000D2F800E0A84201D102222CE0B04201D1DD
:1009C000202228E0B84201D10A4624E0404501D166
:1009D0001A4620E0484502D14FF400321BE0504552
:1009E00002D14FF4001216E0584501D1022212E064
:1009F0006C4A143A904201D120220CE0694A90429C
:100A000001D10A4607E0674A1432904201D11A46E2
:100A100001E04FF400320EEA020E3AE0624AD2F8E8
:100A200000E0A84201D1022231E0B04201D12022EF
:100A30002DE0B84201D10A4629E0404501D11A46CD
:100A400025E0484502D14FF4003220E0504502D164
:100A50004FF400121BE0604502D14FF0007216E027
:100A6000584501D1022212E04E4A143A904201D177
:100A700020220CE04B4A904201D10A4607E0494A45
:100A80001432904201D11A4601E04FF400320EEACE
:100A9000020EBEF1000F6ED00268D24392077ED4E0
:100AA0000268920603D4026822F002020260206803
:100AB000604530D9A84201D1022128E0B04201D1DD
:100AC000202124E0B84222D0404501D119461EE041
:100AD000484502D14FF4003119E0504502D14FF49E
:100AE000001114E0584501D1022110E02D4A143ABA
:100AF000904201D120210AE02A4A904207D0294998
:100B00001431884201D1194601E04FF400312548E3
:100B10002C38016034E0A84201D102212EE0B0421D
:100B200001D120212AE0B84228D0404501D1194600
:100B300024E0484502D14FF400311FE0504502D176
:100B40004FF400111AE0604502D14FF0007115E03A
:100B5000584501D1022111E0124A143A904201D1C4
:100B600020210BE00F4A904208D00E4914318842F0
:100B700002D1194602E012E04FF400310A48416008
:100B8000606B6063012084F82100002084F820005D
:100B9000A16A002903D02046BDE8F05F0847BDE800
:100BA000F09F0000300402400000024070B50028B1
:100BB00004D090F82110002411B103E0012070BD91
:100BC00080F82040022180F8211001680A6843F66D
:100BD000F0739A43D0E901352B43D0E903563543EE
:100BE0002B4345692B4385692B43C5692B4313432D
:100BF0000B604463012180F82110002070BD70B5A6
:100C0000044694F82000012823D0012084F8200015
:100C1000022084F821002068056825F001050560A0
:100C20002046FFF701FB2068016841F002010160E6
:100C30002068016841F0040101602068016841F00A
:100C4000080101602068016841F001010160002095
:100C500070BD022070BD31B500F018F9044600F0F7
:100C600015F90099001B8842F9D338BD2DE9F84FDA
:100C700000230024DFF8DC914FF00F0809F1040A8B
:100C80000AF1040B0BF1040E0127A7400A683A4051
:100C9000BA4275D1DFF8C0C14D68A5EB0C066545B9
:100CA0002BD00DDC032D34D005DC35B3012D19D04C
:100CB000022D2FD11BE0112D16D0122D2AD119E0B3
:100CC000B6F5881F19D006DCB6F5803F15D0B6F50D
:100CD000801F1FD111E0B6F5001F0ED0B6F5041F1E
:100CE00018D10AE0CB6815E0CB681B1D12E0CB6879
:100CF00008330FE0CB680C330CE08B6823B1012B79
:100D000004D00823476105E0042303E008230761BA
:100D100000E00023FF2A01D8054601E000F10405A8
:100D200002D84FEA840603E0A4F108064FEA8606DB
:100D30002F6808FA06FC27EA0C0703FA06F647EACA
:100D400006072F604D68ED007ED5444DAE6946F034
:100D50000106AE61AD6905F001050095404D24F036
:100D600003067719BE68A5072D0F08FA05FC26EAC9
:100D70000C06DFF8F0C0604503D14FF0000C25E011
:100D800062E0DFF8E4C0604502D14FF0010C1DE0E5
:100D9000DFF8D8C0604502D14FF0020C16E0DFF852
:100DA000D0C0604502D14FF0030C0FE0DFF8C4C0A3
:100DB000604502D14FF0040C08E0DFF8BCC060458C
:100DC00002D14FF0050C01E04FF0060C0CFA05FCC7
:100DD0004CEA060CC7F808C04D68ED0305D5D9F8F4
:100DE00000501543C9F8005004E0D9F8005095436D
:100DF000C9F800504D68AD0305D5DAF80050154329
:100E0000CAF8005004E0DAF800509543CAF80050E0
:100E10004D68ED0205D5DBF800501543CBF80050C6
:100E200004E0DBF800509543CBF800504D68AD026C
:100E300005D5DEF800501543CEF8005004E0DEF88A
:100E400000509543CEF80050641C102CFFF41CAFEA
:100E5000BDE8F88F000401400000111000100240AE
:100E60000000014000080140000C0140001001405A
:100E70000014014000180140001C0140002A01D06C
:100E80000161704709040161704700000148006872
:100E9000704700000400002002480168491C0160FE
:100EA000704700000400002010B50748016841F0B9
:100EB00010010160032000F075F8002000F006F832
:100EC00000F016F8002010BD0020024010B50446C6
:100ED00000F0D6F94FF47A72B0FBF2F000F0C1FDE9
:100EE00000222146501E00F03DF8002010BD0000F9
:100EF00008B51548816941F001018161806900F000
:100F000001000090052000F04DF8002211466FF01E
:100F10000B0000F027F8002211466FF00A0000F0E5
:100F200021F8002211466FF0090000F01BF80022A2
:100F30001146101F00F016F80022BDE808401146C7
:100F4000501E00F00FB800000010024000F01F0219
:100F5000012191404009800000F1E020C0F800111B
:100F600070470000F0B40D460D4B1B68C3F302231D
:100F7000C3F10704042C00D90424191D072901D248
:100F8000002300E0DB1E012606FA04F1491E294079
:100F900099409E40761E16403143F0BC00F0CDBF14
:100FA0000CED00E000F00701054A10684FF6FF0362
:100FB000184040EA012003490843106070470000D0
:100FC0000CED00E00000FA052DE9F04704460F465D
:100FD000DFF8A492D9F80000A84D00F00701012025
:100FE000430446064FF0020C41F28838B9426FD2F2
:100FF000D9F8001021F007013943C9F80010D9F8D9
:10100000001001F00701B94201D0BDE8F087217856
:10101000890705D56968A26821F0F001114369606C
:101020002178C90761D0616801290BD002291FD03E
:101030009CFAACF2B2FA82F242F0200252092DD0B0
:101040002A682CE093FAA3F2B2FA82F242F020026C
:10105000520901D02A6800E06A6A93FAA3F3B3FA4E
:1010600083F303F01F039840024223D10120CCE711
:1010700096FAA6F2B2FA82F242F02002520901D0A8
:101080002A6800E06A6A96FAA6F3B3FA83F303F0DB
:101090001F03984002420DD10120B6E76A6A9CFA0C
:1010A000ACF3B3FA83F303F01F039840024201D17B
:1010B0000120AAE7686820F0030008436860FFF792
:1010C000E5FE0646606801280AD0022815D021E016
:1010D00025E0FFF7DBFE801B404501D9032094E7A4
:1010E0006868C0F381000128F3D1ADE0FFF7CEFEC0
:1010F000801B404501D9032087E76868C0F3810061
:101100000228F3D1A0E0FFF7C1FE801B404501D9C2
:1011100003207AE7686810F00C0FF4D194E021788E
:10112000890705D56968A26821F0F001114369605B
:101130002178C90779D0616801290BD002291FD015
:101140009CFAACF2B2FA82F242F0200252092DD09F
:101150002A682CE093FAA3F2B2FA82F242F020025B
:10116000520901D02A6800E06A6A93FAA3F3B3FA3D
:1011700083F303F01F039840024223D1012044E788
:1011800096FAA6F2B2FA82F242F02002520901D097
:101190002A6800E06A6A96FAA6F3B3FA83F303F0CA
:1011A0001F03984002420DD101202EE76A6A9CFA83
:1011B000ACF3B3FA83F303F01F039840024201D16A
:1011C000012022E7686820F0030008436860FFF709
:1011D0005DFE06466068012809D0022814D020E090
:1011E000FFF754FE801B404501D903200DE76868D6
:1011F000C0F381000128F3D117E0FFF747FE801B01
:10120000404501D9032000E76868C0F38100022847
:10121000F3D10AE0FFF73AFE801B404501D90320D5
:10122000F3E6686810F00C0FF4D1D9F8000020F054
:1012300007003843C9F80000D9F8000000F00700A3
:10124000B84201D00120E0E62078400705D5686863
:10125000E16820F4E060084368602078000706D564
:101260006868216920F4605040EAC100686000208D
:10127000FFF72CFE0020C8E60020024000100240CC
:1012800000B500F043F808494968F02292FAA2F24A
:1012900001F0F001B2FA82F2D140044A515CC84038
:1012A0000349086000BD00000010024062250008EC
:1012B0000000002000B5FFF7E3FF074949684FF43D
:1012C000E06292FAA2F201F4E061B2FA82F2D14055
:1012D000024A515CC84000BD00100240622500086F
:1012E00000B5FFF7CDFF074949684FF4605292FA05
:1012F000A2F201F46051B2FA82F2D140024A515C8A
:10130000C84000BD001002406225000810B585B03D
:101310001AA0D0E90031D0E90220CDE90131CDE9B0
:1013200003201AA000680090194B5968194801F071
:101330000C02042A1DD0082A1BD14FF4701494FA11
:10134000A4F401F47012B4FA84F4E24001ACA25C9B
:10135000C90310D559684FF4003393FAA3F301F48D
:101360000031B3FA83F3D9401DF80110B0FBF1F05E
:10137000504305B010BD08485043FAE70203040586
:10138000060708090A0B0C0D0E0F101001020000D1
:101390000010024000127A0000093D002DE9F84FCC
:1013A0000446F94D20784FF00106C00775D06868F3
:1013B0007704C0F38100012807D06868C0F381007A
:1013C00002281DD16868C0031AD597FAA7F0B0FAB1
:1013D00080F040F02000400901D0286800E0686AF1
:1013E00097FAA7F1B1FA81F101F01F0206FA02F1B2
:1013F000084252D0606800284FD10120BDE8F88F24
:10140000286820F480302860286820F48020286034
:10141000FFF73CFD804607E0FFF738FDA0EB080032
:10142000642801D90320E9E797FAA7F0B0FA80F021
:1014300040F02000400901D0286800E0686A97FA6F
:10144000A7F1B1FA81F101F01F0106FA01F108429A
:10145000E2D16068B0F5803F11D0A8B1B0F5A02FFF
:101460001CD0286820F480302860286820F4802070
:1014700028606068C8B3FFF709FD80461FE0286850
:1014800040F480302860F4E7286820F48030286039
:10149000286820F480202860EBE748E0286840F4C2
:1014A00080202860286840F480302860E1E7FFF75A
:1014B000EDFCA0EB0800642801D903209EE797FA11
:1014C000A7F0B0FA80F040F02000400901D0286871
:1014D00000E0686A97FAA7F1B1FA81F101F01F0103
:1014E00006FA01F10842E2D021E0FFE7FFF7CEFC67
:1014F000804607E0FFF7CAFCA0EB0800642801D98A
:1015000003207BE797FAA7F0B0FA80F040F02000C4
:10151000400901D0286800E0686A97FAA7F1B1FA9B
:1015200081F101F01F0106FA01F10842E2D12078B1
:10153000DFF8588280074FF0000B4FF0020732D5DA
:1015400068684FF0F80A10F00C0F07D06868C0F315
:101550008100022828D16868C00325D497FAA7F033
:10156000B0FA80F040F02000400901D0286800E087
:10157000686A97FAA7F1B1FA81F101F01F0106FA42
:1015800001F1084204D02069012801D0012035E78B
:1015900028689AFAAAF26169B2FA82F220F0F80099
:1015A0009140084328605CE0206990B396FAA6F069
:1015B000B0FA80F048F82060FFF768FC814607E049
:1015C000FFF764FCA0EB0900022801D9032015E70E
:1015D00097FAA7F0B0FA80F040F02000400901D05F
:1015E000286800E0686A97FAA7F1B1FA81F101F082
:1015F0001F0106FA01F10842E2D028689AFAAAF21D
:101600006169B2FA82F220F0F80091400843286044
:1016100027E0FFE796FAA6F0B0FA80F048F820B08D
:10162000FFF734FC814607E0FFF730FCA0EB090030
:10163000022801D90320E1E697FAA7F0B0FA80F07A
:1016400040F02000400901D0286800E0686A97FA5D
:10165000A7F1B1FA81F101F01F0106FA01F1084288
:10166000E2D12078000770D5A069C0B396FAA6F041
:10167000B0FA80F008EB8000C0F88064FFF706FC49
:10168000814607E0FFF702FCA0EB0900022801D920
:101690000320B3E697FAA7F0B0FA80F040F06000BC
:1016A000B6EB501F01D128680BE097FAA7F0B0FA0B
:1016B00080F040F06000B7EB501F01D1286A00E0D5
:1016C000686A97FAA7F1B1FA81F101F01F0206FAF0
:1016D00002F10842D6D00120FFF7BDFA35E0FFE75E
:1016E00096FAA6F0B0FA80F008EB8000C0F880B45B
:1016F000FFF7CCFB814607E0FFF7C8FBA0EB090032
:10170000022801D9032079E697FAA7F0B0FA80F011
:1017100040F06000B6EB501F01D128680BE097FA4B
:10172000A7F0B0FA80F040F06000B7EB501F01D195
:10173000286A00E0686A97FAA7F1B1FA81F101F02E
:101740001F0206FA02F10842D6D12078400770D570
:10175000E86940F08050E861E86900F0805000904E
:10176000DFF82CA0DAF8000040F48070CAF800001E
:10177000FFF78CFB81460DE0FFF788FBA0EB09002B
:10178000642807D9032039E60010024000004242D5
:1017900000700040DAF80000C005EDD5286A20F09E
:1017A00001002862286A20F004002862FFF76EFB1F
:1017B000814641F2883A07E0FFF768FBA0EB090099
:1017C000504501D9032019E697FAA7F0B0FA80F046
:1017D00040F04000B6EB501F01D128680BE097FAAB
:1017E000A7F0B0FA80F040F04000B7EB501F01D1F5
:1017F000286A00E0686A97FAA7F1B1FA81F101F06E
:101800001F0106FA01F10842D6D1E068012811D083
:10181000A8B105281CD0286A20F001002862286A97
:1018200020F004002862E068C8B3FFF72FFB814670
:101830001FE06EE0286A40F001002862F3E7286AA2
:1018400020F001002862286A20F004002862EAE7FC
:10185000286A40F004002862286A40F001002862EB
:10186000E1E7FFF713FBA0EB0900504501D9032086
:10187000C4E597FAA7F0B0FA80F040F04000B6EB6C
:10188000501F01D128680CE097FAA7F0B0FA80F059
:1018900040F04000B7EB501F02D1286A01E00BE096
:1018A000686A97FAA7F1B1FA81F101F01F0206FA0E
:1018B00002F10842D5D02CE0FFF7E8FA814607E0B4
:1018C000FFF7E4FAA0EB0900504501D9032095E5A4
:1018D00097FAA7F0B0FA80F040F04000B6EB501F46
:1018E00001D128680BE097FAA7F0B0FA80F040F039
:1018F0004000B7EB501F01D1286A00E0686A97FAF0
:10190000A7F1B1FA81F101F01F0206FA02F10842D3
:10191000D6D1E06980B36968C1F38101022970D032
:101920004FF080794FF00077022809D099FAA9F09A
:10193000B0FA80F048F820B0FFF7A8FA044668E053
:1019400099FAA9F0B0FA80F048F820B0FFF79EFAB3
:10195000824607E0FFF79AFAA0EB0A00022801D9B5
:1019600003204BE597FAA7F0B0FA80F040F0200092
:10197000400902D0286801E060E0686A97FAA7F1A0
:10198000B1FA81F101F01F0106FA01F10842E1D13B
:10199000206AB0F5803F05D16868A16820F4003066
:1019A00008436860D4E908010843696821F47411A8
:1019B0000843686099FAA9F0B0FA80F048F820600E
:1019C000FFF764FA044606E0FFF760FA001B0228FE
:1019D00001D9032012E597FAA7F0B0FA80F040F0A1
:1019E0002000400901D0296800E0696A97FAA7F051
:1019F000B0FA80F000F01F0006FA00F00142E3D0D8
:101A00001CE01DE0FFF742FA001B022801D9032069
:101A1000F4E497FAA7F0B0FA80F040F02000400913
:101A200001D0296800E0696A97FAA7F0B0FA80F05F
:101A300000F01F0006FA00F00142E3D10020DDE4CF
:101A40000120DBE44FF0E021042804D0086920F0F5
:101A5000040008617047086940F00400086170479D
:101A6000704710B5401EB0F1807F01D3012010BD3A
:101A70004FF0E02460610F21601700F05EFA002053
:101A8000A06107202061002010BD10B5FFF7E8FF1E
:101A900010BD704770B50446002C04D094F839008E
:101AA000002510B106E0012070BD84F838502046B2
:101AB00000F020F8022084F839002068C16821F481
:101AC0000051C160204600F029FB2068016921F423
:101AD000904101612068416921F02A01416120683B
:101AE000C16841F40051C160E563012084F8390008
:101AF000002070BD2DE9F04F85B004464B492068A9
:101B000000264B4F4FF002094FF003084FF4806A54
:101B10004FF0200B884234D1B86940F48040B8615E
:101B2000B86900F480400090786940F00100786165
:101B3000786900F00100009048150190CDF80890F8
:101B4000CDF810803B4D01A92846FFF78FF8CDF85E
:101B500004A00296039601A92846FFF787F8374D9F
:101B6000354828606E60AE60EE602E616E61C5F82B
:101B700018B04FF40050E8612846FFF717F8656386
:101B80006C622F49206888424DD1B86940F0080046
:101B9000B861B86900F008000090B86940F008002A
:101BA000B861B86900F008000090786940F0010061
:101BB0007861786900F001000090CDF804A0CDF8BC
:101BC0000890CDF810801F4D01A92846FFF74EF868
:101BD000E81401900296039601A92846FFF746F8FB
:101BE000002204212846FFF749F904200190012032
:101BF0000290CDF8108001A92846FFF737F80E486B
:101C00000E4D2838383528606E60AE60EE602E616B
:101C10006E61C5F818B04FF40050E8612846FEF731
:101C2000C5FF65636C6205B0BDE8F08F0038014008
:101C300000100240000801405800024088000020C7
:101C400000480040000C014037B50446134694F8A4
:101C50003900012803D0122801D002203EBD019A8C
:101C60004AB343B394F83800012826D0012084F801
:101C70003800A262A3850025E56394F83900122894
:101C80001DD0222084F83900616B0F488862616B97
:101C90000E48C862616B0E4808632168606B091DBD
:101CA000FEF7ADFF2068416941F04001416184F8D1
:101CB000385000203EBD01203EBD02203EBD3220F6
:101CC00084F83900E0E70000DB2000081321000859
:101CD000BD20000830B50068104988420BD110487B
:101CE00000684168104A0F4B107819541978002485
:101CF0003A2901D0147030BD401CC0B210701918C0
:101D000011F8015C0A2DF6D111F8021C0D29F2D14F
:101D10001C54064901200870147030BD0048004072
:101D2000F800002014000020080000200A00002015
:101D300070472DE9F04104460D46984694F8390065
:101D4000012804D0222802D00220BDE8F0819DB1F4
:101D500092B194F83800012810D0012684F8386038
:101D60000027E76394F83900222809D0122084F86C
:101D70003900A284E2842EE00120E6E70220E4E7B5
:101D8000322084F83900F4E7401EE084A068B0F502
:101D9000805F08D0434600228021204600F044FAAC
:101DA000A8B10320D1E7434600228021204600F05D
:101DB0003BFA08B10320C8E728882168C0F308006F
:101DC0004860206908B16D1C05E0AD1C03E0216886
:101DD00015F8010B4860E08C0028D5D1434600225D
:101DE0004021204600F020FA08B10320ADE794F826
:101DF0003900322805D084F8396084F83870002022
:101E0000A3E7222084F83900F7E7FEE708B5164873
:101E1000816941F004018161806900F00400009053
:101E20001348124901604FF4E131416000218160A3
:101E30004FF40052C26001610C2242618161C161B4
:101E4000FFF728FE002201212520FFF78BF825202F
:101E5000FFF77CF8012211460F20FFF783F8BDE859
:101E600008400F20FFF772B8001002400038014010
:101E700048000020FEE700002DE9F04780460C46B0
:101E800040F20E47012239460220FEF7DFF9294DC4
:101E9000287A00F04BFB0646E87900F047FB46EA5B
:101EA0000010C6B2A87A00F041FB8146687A00F0C3
:101EB0003DFB49EA0010C0B240EA0622A8F50578C9
:101EC000B8F10F0F2FD2DFE808F0082E0C2E112EDC
:101ED000162E1B2E202E252E2A0022F00102224330
:101EE00021E022F0020040EA44021CE022F004005B
:101EF00040EA840217E022F0080040EAC40212E03F
:101F000022F0100040EA04120DE022F0200040EA26
:101F1000441208E022F0400040EA841203E022F07C
:101F2000800040EAC4123946BDE8F0470220FEF7BF
:101F30000FBA00001400002070470907090E00289E
:101F400006DA00F00F0000F1E02080F8141D704761
:101F500000F1E02080F800147047000008B5164832
:101F6000C16941F48021C161C06900F48020009002
:101F70001348124901604FF4E13141600021816052
:101F80004FF40052C26001610C2242618161C16163
:101F9000FFF780FD002201212720FEF7E3FF272025
:101FA000FEF7D4FF012211460D20FEF7DBFFBDE84E
:101FB00008400D20FEF7CABF001002400048004054
:101FC000F800002030B44FF48974A0420CD0A41C57
:101FD000A04210D0A41CA04214D10B4621460222DC
:101FE00030BC1046FEF738BA0B462146022230BC00
:101FF0001046FEF731BA0B462146022230BC10468D
:10200000FEF72ABA30BC704710B5FEF745FFBDE8B1
:102010001040FFF73ABD30B58FB0012005900004A5
:1020200006900024079402250C950D904FF4E010C3
:102030000E9005A8FFF7B2F90F20009001950294C9
:1020400068020390049402216846FEF7BDFFFFF783
:1020500017F94FF47A71B0FBF1F0FFF702FD04209D
:10206000FFF7F0FC00221146501EFEF77BFF0FB079
:1020700030BD00000D48016841F001010160416878
:102080000B4A1140416001680A4A11400160016831
:1020900021F480210160416821F4FE0141604FF488
:1020A0001F0181600449C0030860704700100240AE
:1020B0000000FFF8FFFFF6FE08ED00E010B5406AF3
:1020C0000021C185C184012180F83910C16B41F024
:1020D0001001C163FFF7DDFC10BD10B50146486A71
:1020E0000968096889060DD40021C18501684A691B
:1020F00022F040024A6190F83910322905D00121BE
:1021000080F83910FFF7E6FD10BD122180F8391074
:10211000F8E710B5406AFFF70BFE10BD2DE9F0415E
:10212000044620680169E26821F4405111430161CD
:10213000A16820690143606901432068C26841F2D7
:102140000C639A430A43C26020684169A26921F482
:102150004071114341613349206864253226884229
:1021600030D1FFF7BDF800EBC00101EB0010616852
:102170008900B0FBF1F0B0FBF5F7FFF7B1F800EB29
:10218000C00101EB001061688900B0FBF1F8FFF7B6
:10219000A7F800EBC00101EB001061688900B0FBFB
:1021A000F1F0B0FBF5F06FF01801484308EB800048
:1021B00006EB0010B0FBF5F0216867F31F10886094
:1021C000BDE8F081FFF776F800EBC00101EB0010ED
:1021D00061688900B0FBF1F0B0FBF5F7FFF76AF832
:1021E00000EBC00101EB001061688900B0FBF1F861
:1021F000FFF760F800EBC00101EB00106168890097
:10220000B0FBF1F0B0FBF5F06FF01801484308EBBC
:10221000800006EB0010B0FBF5F0216867F31F109B
:102220008860CDE7003801402DE9F04704460F46AD
:1022300092461D46FEF72AFE06464FF000084FF074
:102240000109BAF1000F23D04AE0681C20D025B163
:10225000FEF71CFE801BA8421AD92068C16821F035
:102260008001C1602068C16821F02001C160206840
:10227000C16821F48071C1602068416921F00101C9
:10228000416184F8399084F838800320BDE8F087F4
:102290002068006837EA0000D7D126E0681C1FD00C
:1022A00025B1FEF7F3FD801BA84219D92068C1684B
:1022B00021F08001C1602068C16821F02001C16067
:1022C0002068C16821F48071C1602068416921F0F3
:1022D0000101416184F8399084F838800320D5E702
:1022E0002068006837EA0000D8D00020CEE7FEE77B
:1022F0000FB4054B10B503A9044A029800F017F873
:1023000010BC5DF814FB000005240008100000203C
:1023100002E008C8121F08C1002AFAD170477047AE
:10232000002001E001C1121F002AFBD170472DE9F6
:10233000F84F9946924688460546002706E025282C
:102340000AD051464A4690476D1C7F1C28780028C9
:10235000F5D13846BDE8F88F002315F8011F18465F
:102360002E2915D115F8011F04232A290DD06FF04D
:102370002F022978A1F13004092C09D800EB800044
:1023800002EB400008446D1CF3E758F8040B6D1C89
:102390002A78002ADDD0632A07D0732A0FD010468E
:1023A00051464A4690477F1C2AE018F8042B8DF8C6
:1023B000002000218DF801106E46012103E058F83D
:1023C000046B4FF0FF315A074FF0000401D409E0CD
:1023D000641C84420BDA8C42FADB325D002AF7D1AE
:1023E00005E0641C8C42FCDB305D0028F9D12744F9
:1023F00004E016F8010B51464A469047641EF8D295
:102400006D1CA3E713B54FF6FF730122694602481E
:10241000FFF78FFC00981CBD480000200125FEF747
:1024200043FDFFF7F8FDFFF7F1FCFFF797FD344898
:10243000012201683348091DFFF706FC31480122DB
:1024400001682F48091DFFF7FFFB2F490868026844
:1024500022F0040202600868016821F008010160AE
:102460002A490868026822F00402026008680168CC
:1024700021F008010160FDF791FE4FF48B77642194
:102480003846FFF79FFD4FF4057901214846FFF7D5
:10249000F3FC4FF4FA78642400264046FEF7DBFB99
:1024A00004F5FA74A4B204FB05F13846FFF78AFD7F
:1024B000761CF6B2142EF0D300264046FEF7CBFB76
:1024C000A4F5FA74A4B204FB05F13846FFF77AFDCF
:1024D000761CF6B2142EF0D300214846FFF7CCFC50
:1024E0004FF4FA60FEF7B7FB684245B204FB05F112
:1024F0003846FFF767FD01214846FFF7BDFCCAE7F4
:1025000048000020F800002088000020C0000020C3
:10251000092802D83030C0B27047A0F10A0105295D
:1025200002D83730C0B2704730207047A0F1300178
:10253000092901D8C8B27047A0F14101052902D884
:102540003738C0B27047FF207047002203E010F810
:10255000013B1A44D2B2491EC9B2F8D25042C0B2AD
:102560007047000000000102030401020304060793
:102570000809000094250008000000201400000055
:1025800010230008A82500081400002024110000D2
:102590002023000800A24A040000000000000100FF
:0825A0000A0000000000000029
:0400000508000131BD
:00000001FF
