:020000040800F2
:1000000020150020A56800081D6600081F6600086E
:10001000216600082366000825660008000000002D
:10002000000000000000000000000000F16800086F
:100030002766000800000000F5680008296600082F
:10004000F9680008FD6800080169000805690008F2
:10005000096900080D6900081169000815690008A0
:10006000196900081D690008216900082569000850
:1000700029690008496600082D69000831690008EF
:1000800035690008396900083D69000841690008C0
:1000900045690008496900084D6900085169000870
:1000A00055690008596900085D6900086169000820
:1000B00065690008696900086D69000871690008D0
:1000C00075690008796900087D6900088169000880
:1000D00085690008356600083F66000889690008E0
:1000E0008D69000891690008956900089969000800
:1000F0009D690008A1690008A5690008A9690008B0
:10010000AD690008B1690008B5690008B96900085F
:10011000536600085D660008BD690008C1690008F3
:10012000C5690008C9690008CD690008D1690008DF
:100130002DE9F14FB0B0924604910DF142013A9A87
:100140002B9199464A7000200AE01AF8011B049886
:10015000309A90470028049000F0B6860D98401C15
:100160000D909AF8000050B12528EED10021002210
:100170000791089209910A920B910C9204E00D9854
:1001800000F0A4BE41F001011AF8010F2028F9D0B7
:1001900023280CD02B2804D02D2805D0302809D0B6
:1001A0000BE041F00201EFE741F00401ECE741F020
:1001B0000801E9E741F01001E6E72A280FD1D9F854
:1001C000002052F8040BC9F8002000280F9003D536
:1001D00040420F9041F004010AF1010A14E00F922D
:1001E000DFF828380AE00F98984205DA00EB80041F
:1001F00002EB4402303A0F920AF1010A9AF8002009
:10020000A2F130000A28EED39AF800002E2803D07D
:100210004FF0FF320E9229E01AF8010F2A2809D177
:10022000D9F8000050F8042BC9F800000E920AF12A
:10023000010A1BE02D280CBF0AF1010A0020002250
:100240000E92DFF8C8470BE040B90E9AA24205DAD9
:1002500002EB820503EB4503303B0E930AF1010AE2
:100260009AF80030A3F130020A2AEDD3ADF840101D
:10027000DFF89C07784400F5F3609AF8001000F06E
:1002800057FF08B11AF8010B8DF842009DF84200A3
:10029000682805D19AF8000068280CD1622106E090
:1002A0006C2804BF9AF800006C2804D171218DF8E5
:1002B00042100AF1010A12A806901AF801BBBBF11C
:1002C00025012CD01C3900F0D081091F022940F2F1
:1002D000CC81133900F02385093900F0C681891ECD
:1002E00000F0B885491E00F06585491E022940F2DC
:1002F000BC81091F00F05E85491F00F02881491E5E
:1003000000F00D85491E00F0D080C91E0DD0891E59
:1003100000F00585C91E00F0028500F0A6BD25236A
:100320008DF84830012100F0ABBDD9F8000050F83D
:10033000044BC9F80000002C059440F0A3802B99D1
:100340004878002800F099804FF0FF340FF6843091
:1003500000F0FEFE201A40F0B78500F092BD6D1E41
:1003600040F0A9853096079D12AF75B1309E17F801
:10037000012B02A9304600F073FE002801D46D1E47
:10038000F5D10028309640F09F850A9D3020002D41
:100390008DF804000CDD309E012301AA02A930462D
:1003A00000F06EFE002840F08F856D1EF4D130966F
:1003B000059F089D75B1309E17F8012B02A93046A4
:1003C00000F04EFE002801D46D1EF5D100283096B5
:1003D00040F07A850B9D3020002D8DF804000CDD57
:1003E000309E012301AA02A9304600F049FE0028F0
:1003F00040F06A856D1EF4D1309605980899099DE4
:10040000471875B1309E17F8012B02A9304600F04D
:1004100027FE002801D46D1EF5D10028309640F04B
:1004200053850C9D3020002D8DF804000CDD309E8E
:10043000012301AA02A9304600F022FE002840F064
:1004400043856D1EF4D130969DF8400041077FF53D
:1004500088AE2020002C8DF804007FF782AE309DFE
:10046000012301AA02A9284600F00AFE002840F054
:100470002B85641EF4D1309573E60FF66440059029
:1004800000F0FFBC0E9D002D04D5204600F080FE3C
:10049000044607E02A46204600F096FE002814BFD6
:1004A000041B2C46089400F0ECBCD9F8001051F85D
:1004B000040BC9F8001020F00004002121F0FF35E2
:1004C00012ABCDE902450593DDE9022306993C24F0
:1004D00013B90AB90E9898B102F00F053035641EB1
:1004E000EEB23A2EA8BF2735120942EA03721B0961
:1004F0000D5508BF002A03D005980D19A842EBD36B
:1005000008190590C4F13C020E98089282420ADA5A
:10051000BDF84010821A4FF6EF7001400A92ADF814
:10052000401000F0AEBC002840F1AB849DF84000C4
:1005300000F01400102840F0A4840F9B07990A983B
:100540005B1A1B1A9A1A002A40F39B84E5E32B9945
:10055000487820B14FF0FF340FF65430F8E69DF89C
:100560004200622861D0682817D06A283FD06C28E2
:1005700006D0712847D074282CD07A281DD064E08A
:10058000D9F8001051F8040BC9F80010002868D100
:100590004FF0FF340FF63030DAE6D9F8001051F89A
:1005A000040BC9F8001020B94FF0FF340FF61830D3
:1005B000CEE60D99018000F064BCD9F8001051F826
:1005C000040BC9F8001000284BD14FF0FF340FF690
:1005D000F820BDE6D9F8001051F8040BC9F8001056
:1005E00000283ED14FF0FF340FF6DC20B0E6D9F8FA
:1005F000001051F8040BC9F8001080B94FF0FF3417
:100600000FF6C420A4E6D9F8001051F8040BC9F87D
:10061000001020B94FF0FF340FF6AC2098E60D9A89
:10062000D317C0E9002300F02CBCD9F8001051F812
:10063000040BC9F8001020B94FF0FF340FF68820E2
:1006400086E60D99017000F01CBCD9F8001051F835
:10065000040BC9F8001020B94FF0FF340FF66820E2
:1006600076E60D99016000F00CBCD9F80020D21D8F
:1006700022F00702C9F80020D2E900010832C9F8C7
:100680000020CDE90201C80F02D007982D210AE011
:10069000BDF84000810702D507982B2103E0C00771
:1006A00005D50798202112AA1154401C0790DDE9B6
:1006B0000223079912A8CDE92C2308444BF020010E
:1006C0006129059021AC0BD00E99002902D5062195
:1006D0000E9105E001BF4BF02001672901220E9227
:1006E000DDE9022359004915491C0DD11A030BD02D
:1006F000ABF1610503211A2D089102D20FF6E41126
:1007000010E00FF6E4110DE059004915491C0DD118
:100710001A030BD1ABF1610503211A2D089119D3EE
:100720000FF6CC11032200F07BFDAAE3DDE9020104
:10073000CDE92E01DDE92E2323F00047B7F5801F18
:1007400022F000060DD20022002F08BF002E0092DA
:1007500003D116E00FF69411E4E76A4600F0B4FD09
:100760000FE0DFF8DC08DFF8DC1800EB1750009032
:10077000DDE92E234FF0FF301940DFF8CC78104030
:100780003943CDE902014BF0200061280DD10598D5
:1007900030210170821CBBF1610F05920CBF7821E2
:1007A000582141700798801C0790DDE9020120F074
:1007B000000231F0004308BF002A02D100260025C4
:1007C00068E14BF02008B8F1610F40F0B4800E985A
:1007D000002847BF21210191401C0190019FDDE9C4
:1007E0002C017F1C00220023DDE9024500F0A4FD5E
:1007F00000998DF8842038BF85F00045091F002F2F
:1008000000910DF1850653DD204629460022002384
:1008100000F0AAFD4CD24800400D00F11C0212D09D
:10082000002A10DD40F2FF739A4206DBDFF81C1845
:1008300005F000400143002011E06FF31E5141EA32
:10084000025120460BE024F0000035F0004108BFC3
:1008500000280FBF29461C22294600F09DFD0446B2
:100860000D4600F037FEFF1F002F804609DD00F027
:100870004FFE02460B462046294600F05BFE04462A
:100880000D46F01D0721B8F1000F0CDD491E5EBFBB
:1008900008F00F0200F8012D4FEA2818F3D502E006
:1008A000002200F8012D491EFAD5C61D002FABDC31
:1008B0000DF18500361A01988642D8BF30460028CF
:1008C0000DF1850430D4B04206DA0DF185010A5CE1
:1008D000082AA8BF0F2100DA0021024621AB1344E9
:1008E00000E0401E13F80159521E8D42F9D00F2925
:1008F00004D10DF185018B5C5B1C8B54002A04D55F
:100900000099091D21AC401C0091411E0CD46218B5
:10091000ABF13A0613783033DDB23A2DA8BFF318A5
:10092000491E02F80139F5D50E99002940F1B08031
:10093000421E0E92ACE00099DFF8142747F2975060
:10094000414391FBF2F2DDE92C45009225F0004590
:10095000D2F1070204DD2046294600F04EFB0BE0F1
:1009600052420020DFF8EC1600F047FB02460B462F
:100970002046294600F050FE0446B8F1660F0E9856
:1009800006BF009F0A3706273F18142FC8BF142739
:1009900030200D468DF884000DF18506002F39DDDD
:1009A0002046294600F05CFF01460A4606F108038E
:1009B00004200A26B2FBF6F606EB860EA2EB4E02E8
:1009C000303203F8012C0A22B6FBF2F202EB820E5F
:1009D000A6EB4E063036401E03F8026DE9D1083F03
:1009E000002F03F10806D9DD084600F04DFF02464E
:1009F0000B462046294600F09DFD0022DFF85836C0
:100A000000F050FF04460D46CAE700BFCBCCCC0C2B
:100A1000C45E00000DF18500361A0DF1850404E076
:100A20000098401E761E0090641C20783028F7D075
:100A3000B8F1660F02D10099491C04E0B8F1650FC6
:100A40000CBF012100210E9808188642B8BF701E05
:100A500000281DD4B04204DA215C3429C8BF3921F2
:100A600000DC30210246631E9D1800E0401E15F890
:100A70000169521E8E42F9D0392902D1A15C491C6C
:100A8000A154002A04D50099491C1C46401C009121
:100A90000646009D00F0F2FF406A0778DDF83880D6
:100AA00030B2002802DC01260FF248644BF020002F
:100AB000662808BF6D1C16D0672846D128B210F1F1
:100AC000040F48DB404546DA9DF840006D1C0107E5
:100AD00003D430B24045B8BF804628B2B8EB000816
:100AE00048BF4FF000080FFA85FBBBF1000F00F381
:100AF000B5800898411C0891302205990A54B8F134
:100B0000000F03DC9DF84000010704D50898411C44
:100B1000089105990F5418EB0B0FB8BFC8F10005E9
:100B20002DB268420B90A84432B29045B8BF4646F9
:100B3000059B089836B2099632462146184400F0C3
:100B40006FFBA8EB06000C90D2E0BBF1610F17D150
:100B50004FF0700B19E030B2404504DA9DF84010B8
:100B60000A0758BF8046B8F1010848BF4FF0000897
:100B7000BBF1670F14BF4FF0450B4FF0650B04E05E
:100B8000BBF1410F08BF4FF0500B0898411C089172
:100B9000B8F1000F059914F8012B0A5403DC9DF8F5
:100BA000400001071AD50898411C0891B8F1000FC0
:100BB00005990F5412DD761E30B280450598089BCA
:100BC000B8BF464632B22146184400F029FB0899C6
:100BD00036B271180891A8EB06000B900598089999
:100BE000084429B2002980F800B003D42B224270B7
:100BF000821C04E02D2242700D46821C6D420021B1
:100C00002CAB28460AE004460A2094FBF0F000EBE7
:100C10008005A4EB450403F8014B491C00B20028F1
:100C2000F1DC012906DC4BF02000652804BF3020F0
:100C300002F8010B00292CAB08D1302002F8010B7F
:100C400006E0491E585C303002F8010B0029F8DC40
:100C5000059908980844121A099249E030B229B25D
:100C600088421CDA0598089B32B22146184400F0ED
:100C7000D7FA089936B27118ABEB0606B8F1000F37
:100C800008910B9603DC9DF84000020704D50598F7
:100C900047540999491C0991CDF8308028E00598FE
:100CA000089B2AB22146184400F0BAFA0898761B2D
:100CB0005844B8F1000F089003DC9DF840100A0773
:100CC00003D5411C089105990F5430B28045059811
:100CD000089BB8BF464632B204EB0B01184400F043
:100CE0009FFA089836B230180890A8EB06000B90CF
:100CF0009DF8400000F01400102840F0C280079AD0
:100D000008990B988A18099982180C988A188218E1
:100D10000F98824280F2B580821A0A92B1E09DF863
:100D20004200622808D068280ED06A2814D06C28A7
:100D30001FD0712810D01CE0D9F8001051F8040B16
:100D4000C9F80010C0B21AE0D9F8001051F8040B2D
:100D5000C9F8001080B212E0D9F80020D21D22F0AC
:100D60000702C9F80020D2E900010832C9F80020C2
:100D700006E0D9F8001051F8040BC9F80010002162
:100D8000CDE902019DF8400001075AD5DDE90223B3
:100D9000002B08BF002A54D04BF02000782850D1F7
:100DA000079812A930220A54401C431C079301F8EB
:100DB00000B046E09DF84200622808D068280ED0B6
:100DC0006A2814D06C281FD0712810D01CE0D9F8E4
:100DD000001051F8040BC9F8001040B21AE0D9F81D
:100DE000001051F8040BC9F8001000B212E0D9F855
:100DF0000020D21D22F00702C9F80020D2E900012C
:100E00000832C9F8002006E0D9F8001051F8040BA8
:100E1000C9F80010C117CDE90201002902D50798D1
:100E20002D210AE0BDF84000810702D507982B214B
:100E300003E0C00705D50798202112AA1154401CD1
:100E4000079012A807990144059102A8594600F09D
:100E50004FF816E001200790D9F8000050F8041B65
:100E6000C9F800008DF848100BE025210122BBF1E4
:100E7000000F8DF84810079203D08DF849B0022179
:100E800007910F9A07980A990C9C121A0898521AFF
:100E90000B99121A0998521A121A9DF84000141B45
:100EA00041073FF560AA2020002C8DF804007FF751
:100EB0005AAA309E2546012301AA02A9304600F015
:100EC000DFF800283FF44BAA4FF0FF3031B0BDE807
:100ED000F08F00007072696E74665F733A20626111
:100EE0006420257320617267756D656E7400000063
:100EF0002DE9FC4307466F293E6908BF082405D049
:100F000041F02000782814BF0A2410243C25D7E99A
:100F10000023642918BF69299046994605D1002B02
:100F200003D5D8F1000869EB4909B9F1000F08BFF2
:100F3000B8F1000F0CD1386B50B9082C39D197F8A3
:100F40003800010735D530203B2586F83B0030E0DE
:100F50008DF80010404649462246E31700F094FD04
:100F60003032D0B26D1E3A28019504DB9DF80000A6
:100F7000A0F151018A187255404649462246E317AE
:100F800000F082FD80465FEA010908BFB8F1000F5A
:100F900003D0F86871198842DCD3082C09D197F87E
:100FA0003800010705D5705D302802D06D1E302055
:100FB0007055C5F13C02BA617119F960386B824213
:100FC00008DA821A3A624FF6EF70398F014039879A
:100FD000BDE8F38300280ED597F8380000F0140020
:100FE000102808D17B6B7969386A5B1A1B1A9A1A28
:100FF000002AC8BF3A62BDE8F3832DE9D043064614
:101000000F4614464FF00008DFF8509012E0E0075A
:1010100007D542464B463046394600F043FC06466B
:101020000F464046494642464B4600F03BFC6410A2
:1010300080468946002CEAD130463946BDE8D08347
:1010400002FCFFFFFFFF0F800000E03F0000F07F89
:10105000A08601000000F03F84D7974100002440A3
:1010600010B503460C461146A0689847A06020B111
:10107000E06A401CE062002010BD4FF0FF3010BD60
:10108000F8B505460E4617461C4600205CB117F819
:10109000011BB068A847B06030B1F06A401CF06234
:1010A0000020641EF3D1F2BD4FF0FF30F2BD00000E
:1010B0007072696E74665F733A20256E206469737E
:1010C000616C6C6F776564007072696E74663A204B
:1010D00062616420256E20617267756D656E7400B3
:1010E000000000006E616E004E414E00696E6600A9
:1010F000494E4600300030B4002513E050F8042B70
:10110000D30744BFA9F101039A18091F042942F823
:10111000045BFAD213468C0744BF15809B1CC90799
:1011200048BF1D7050F8041B0029E7D130BC704740
:10113000C9B202788A421AB11CBF10F8012FF9E730
:1011400018BF002070470268531C0360117070477D
:1011500080B500B906A005490B681BB12222002109
:10116000984701E000F0A8FD222002BD08050020FC
:10117000636F6E73747261696E742068616E646C03
:1011800065723A20626164206D6573736167650002
:1011900000F10103810704D010F8011B820781B11F
:1011A000FAD10268A2F10131914311F0803104BFFC
:1011B00050F8042FF6E709BAB1FA81F100EBD1003B
:1011C000401CC01A70470102C9B2830706D0521EE4
:1011D00022D310F8013B9942F7D11FE0083A13D30C
:1011E00002F1040241EA012141EA014150F8043BC5
:1011F000121F21BF4B40A3F1013C2CEA030C1CF051
:10120000803FF3D0C9B2001F083210F8013B521ED4
:1012100028BF91EA030FF8D818BF0120401E70477D
:1012200062B38B0708D0521E11F8013B00F8013B56
:1012300000F024808B07F6D1830740F0208000BFA8
:10124000103A07D330B4B1E83810103AA0E838109B
:10125000F9D230BC530724BFB1E80810A0E8081049
:1012600044BF51F8043B40F8043BD20724BF31F897
:10127000022B20F8022B44BF0B7803707047121F1B
:1012800017D35B0009D151F8043B20F8023B1B0C3B
:10129000121F20F8023BF6D20BE051F8043B00F895
:1012A000013B1B0A20F8023B1B0C121F00F8013BFC
:1012B000F3D238BF121D521E24BF11F8013B00F8B3
:1012C000013BF8D870472E0010B5144600F002F824
:1012D000226010BDC1F30A5343B14A0012F5001F4A
:1012E00028D2A3F2FE32A1EB0251704750EA410C22
:1012F00020D001F0004C31EA0C01B1FA81F204BFB8
:10130000B0FA80F3D2180B3AB2F120032CBF00FAE6
:1013100003F1914041EA0C013EBFC2F1200C20FADA
:101320000CF319439040524240F2FD33D21A01EBC4
:1013300003517047002270474FF4001C1CEB410F13
:1013400094BF1CEB430F09E041EA030C50EA4C0C3C
:1013500052EA0C0C03D2994208BF9042704714BF66
:101360008B428242704743004FF4001C1CEB410F3C
:1013700094BF1CEB430F09E041EA030C50EA4C0C0C
:1013800052EA0C0C03D28B4208BF8242704714BF52
:101390009942904270470000124254D440F2FF7CC0
:1013A0001CEA11530FD0634531D09B1863453CBFF5
:1013B00001EB0251704701F0004141EA0C5100205D
:1013C000AFF30080704750EA410320D001F0004C99
:1013D00091EA0C011CD0B1FA81F30B3B9A420DD972
:1013E000D21A994051EA0C01C3F1200C20FA0CFCEE
:1013F00061449840531C40F2FF7CD7E7914041EA9A
:101400000C01C2F1200C20FA0CF3194390407047F4
:10141000B0FA80F31533202BE0D3202AEED3203A04
:10142000203B9A4209D9D21A00FA03F141EA0C0191
:101430000020531C40F2FF7CB8E700FA02F141EAB9
:101440000C0100207047524240F2FF7C1CEA11530D
:101450000DD06345DBD0B2EB030C3CBFA1EB0251D6
:1014600070470CF1010221EA035141F4801150EA66
:10147000410CCCD001F0004C352A27DC30B481EA95
:101480000C01B2F1200309DAC2F12003044601FA8B
:1014900003F5D0402843D1409C400CE0C3F120022A
:1014A000450020FA03F418BF44F0010421FA03F0C8
:1014B00091400C43002174F1004550F1000051EBC4
:1014C0000C01244230BC7FF47BAF704761460020A2
:1014D00076E70000C1F30A5340F2FE329B1A14DD96
:1014E000D3F120034FEAE17208DDC90241EA50510D
:1014F00041F00040D84080185040704703F2E1307E
:1015000010B1D24382F000407047002070470000C5
:10151000C11768B14840401AB0FA80F29040D21C1E
:10152000C907C2F5846241EA025202EBD0214005AC
:101530007047000070B44FF0004591EA030F40F18E
:10154000C7836B40841A71EB030603D2001BB141C1
:10155000121973414FF4001C1CEB410F34BF7CEB9C
:10156000430442E00C0DA4EB1356352E4FDC45EA44
:10157000C323DB0A45EAC121C912B6F120050DDDFE
:1015800063FA05F6EB4086EA0305124218BF45F000
:101590000105C01851F100010CD213E062FA06F502
:1015A000F2405540F3415A40B340F3405A4080184E
:1015B000594107D349085FEA30005FEA350528BF83
:1015C00045F0010501F58011420875F1004250F126
:1015D000000041EB04514E0016F5001F70BC38BFEF
:1015E00070470020090D090570471CEB410F10D210
:1015F00052EA43060BD0BCEB410F05D80C0DAB43B0
:10160000661E342EB6DD02E0AB438018594170BC33
:10161000704770BC70470000F0B540F2FF7581EA7A
:10162000030C0CF0004C15EA11541DBF15EA1357BA
:10163000AC42AF42E5E0BC41C1F31301C3F3130375
:10164000801A994143F4801304D2641E400049413A
:1016500080185941C90241EA5051B1FBF3F603FB2E
:101660001611A2FB0675D7EBC020A94102D2761E47
:1016700080185941C90241EA5051B1FBF3FE03FB06
:101680001E11A2FB0E75D7EBC020A94103D2AEF10B
:10169000010E80185941890241EA9051760546EAC7
:1016A0008E2EB1FBF3F603FB1611A2FB0675D7EBEA
:1016B0008020A94102D2761E80185941C90241EA10
:1016C00050514EEA060EB1FBF3F603FB1611A2FBD6
:1016D0000675D7EBC020A94102D2761E8018594169
:1016E000C90241EA5051B1FBF3F703FB1711A2FB0A
:1016F0000735D3EBC020A94167F100070CBF0042BA
:1017000047F0010766F3D5274FEA1E31B80814F5F4
:10171000806412DDBD0775F1004250EB0E5051EBB5
:10172000045111F5801F5CBF41EA0C01F0BD4CF083
:101730007F6141F0E0410020F0BDBD076D0840EA47
:101740000E5041F48011D4F10104B4F120060ADAFC
:10175000C4F120060200E04001FA06F3E14018431C
:10176000B24015430EE0342C13DCC6F1200445EAE8
:1017700040056D0820FA06F2154321FA06F0A14053
:101780000D43002175F1004250F1000051EB0C01B6
:10179000F0BD00205FEA0C01F0BDCFB992185B41AB
:1017A000B3FA83F704BFB2FA82F6BF190B3FB7F161
:1017B00020062FBF02FA06F3BB40C7F1200622FA2B
:1017C00006F638BF3343BA401CB1E419641E33E750
:1017D0007F4231F00041B1FA81F404BFB0FA80F6E3
:1017E000A4190B3CB4F120062FBF00FA06F1A1406A
:1017F000C4F1200620FA06F638BF3143A0403C1B56
:101800001AE7AC421ABF05EA1357AF4212E050EA9A
:1018100041061CBF52EA4306BFE750EA4107304683
:1018200061461CBF41EA0551F0BD52EA430C08BFB6
:10183000C143F0BD00204FF4001616EB410F98BFD6
:1018400016EB430F08BF16EB410F24BFC14305E061
:1018500016EB430F0CBF61464CEA0551F0BD00008A
:10186000400D491840EA81200CD2490DA1F5806154
:10187000491C40F0004005DBD1F11F0154BFC840B6
:10188000C017704700207047014648B1B0FA80F198
:101890008840C91CC1F58461090501EBD0214005D0
:1018A00070470000B0B581EA030C0CF0004C40F228
:1018B000FF7515EA11541DBF15EA1357AC42AF422C
:1018C00039E0E41923EA455343F48013C90241F097
:1018D000004141EA505EC7021100A7FB0202002846
:1018E0004FF00000EEFB01204FF00001E3FB072169
:1018F00018BF42F00102401800214941E3FB0E01EC
:10190000A4F580640F0302D252004041494154F1D2
:1019100001046CDD470872F1004250F1000051EB08
:101920000451A1F580115CBF41EA0C01B0BD4CEA45
:1019300005510020B0BD05EA1357AC4214BFAF42B9
:1019400041E050EA410E1CBF52EA430E02E06146FC
:101950000020B0BD24423C441BD15FEA070EF6D004
:10196000090302BF01460020AEF1140EB1FA81F75F
:10197000AEEB070401FA07FE0C37C7F1200100FAAD
:1019800007F7C8404EEA000E23EA455343F480139C
:10199000A2E733F00043B3FA83F704BFB2FA82FE42
:1019A00077440B3FE41BB7F1200E2FBF02FA0EF372
:1019B000BB40C7F1200E22FA0EFE38BF43EA0E03E9
:1019C000BA40641C82E750EA410E14BF52EA430E4B
:1019D0006FF000014FF4001717EB430F8ABF194651
:1019E00017EB410FB5E74CEA05510020B0BDD4F12B
:1019F0000104B4F120070FDAC4F12007520828BF10
:101A000042F0010210FA07F501FA07F7E1BF2A4395
:101A1000E0403843E1400FE0352C98DCC7F120046A
:101A200052EA400220FA07F218BF42F0010231FAEE
:101A300007F0A1400A43002172F1004250F100007A
:101A400051EB0C01B0BD0000613807E005E0A0F1EA
:101A500061011A2901D20120704741381A288041BA
:101A6000C00F7047A0F10901052901D3202801D139
:101A700001207047002070470148704701487047B7
:101A80005000002018000020BBBBE1B1B2F5803F40
:101A900080F07E80022A1ED98C46B1FBF2F102FB57
:101AA00011C31B0443EA1043B3FBF2FC02FB1C33DB
:101AB00080B240EA0343B3FBF2F002FB103240EA8B
:101AC0000C4000237047022A05D98446B0FBF2F08F
:101AD00002FB10C270474AB105D100F0010249086B
:101AE0005FEA3000704700220023704700F0A6B97B
:101AF0000B000200002100207047904271EB030CA4
:101B0000F6D3B3F5803F2FD2F0B5B3FA83F7B1FA2D
:101B100081F4A7F10F0E3D1B5340CEF1200602FACF
:101B20000EF2F3415340B5F10F0746D80F3C2C4459
:101B30004140C4F12006A040F1414140B1FBF3F621
:101B400003FB1611A2FB0645001BA94102D2761E1B
:101B50008018594180EA010221FA0EF362FA0EF26E
:101B600000215A403046F0BD30B4B1FBF3FC03FB1A
:101B70001C11A2FB0C45001BA94103D2ACF1010CC6
:101B80008018594130BC02460B4660460021704720
:101B9000B2F1807F65D3F0B5B2FA82F7B1FA81F481
:101BA000C7F10F063D1B22FA06F307F1110EF241B1
:101BB00020355A40B5F10F07B8D94140C4F120068D
:101BC000A040F1414140B1FBF3FC03FB1C11A2FB1F
:101BD0000C45001BA94103D2BCF1010C80185941EE
:101BE0000F2F12D30F3FC90341EA5041B1FBF3F667
:101BF00003FB1611A2FB0645D4EBC030A94102D26B
:101C0000761E8018594146EACC3C07B34140C7F1E3
:101C10002006B840F1414140B1FBF3F603FB161139
:101C2000A2FB0645001BA94102D2761E801859412D
:101C300080EA010221FA0EF3C7F1200462FA0EF2E3
:101C40000CFA07F05A402CFA04F13043F0BD80EA58
:101C5000010221FA0EF3002162FA0EF260465A40A8
:101C6000F0BD8C46B1FBF2F102FB11C31B0243EA4B
:101C70001063B3FBF2FC02FB1C331B024CEA002096
:101C800043EA1063B3FBF2FC02FB1C331B024CEA79
:101C9000002043EA1063B3FBF2FC02FB1C331B027F
:101CA0004CEA002043EA1063B3FBF2FC02FB1C3257
:101CB0004CEA002000237047012000F0C1B800006A
:101CC00070B44FF0004591EA030F7FF53BAC6B40D9
:101CD000841A71EB030604D26E40001BB141121945
:101CE00073414FF4001C1CEB410F34BF7CEB4306E7
:101CF00083E00C0DA4EB1356362E00F37C80012EEE
:101D000045EAC32341DC43EA525312BFD202920296
:101D10005B08240545EAC12141EA5051D2EBC020BD
:101D2000994125D407D1B0FA80F610FA06F162D0B5
:101D30000020203608E0B1FA81F6B140C6F1200259
:101D400020FA02F21143B0404FEAF474B4EB465467
:101D500034F001064FEA74040AD8D6F50016760D61
:101D600004F00044F04061FA06F25040F14048406F
:101D7000C00A40EA415021F0004128BF5FEA500507
:101D800050F1000044EBD12135E0DB0A45EAC121E6
:101D9000C90AB6F120050EDD42EA0242120CC5F175
:101DA000200603FA06F6EB4042EA06056D4298412A
:101DB00061F100010DE062FA06F5F240554063FA68
:101DC00006FC82EA0C02F3405A406D42904161EBFE
:101DD000030111F4801F05D1641E620502D06D005D
:101DE0004041494121F48011430875F1004350F10D
:101DF000000041EB045170BC70471CEB410F15D241
:101E000023F0004352EA43060BD04FEA4C0CBCEBE4
:101E1000410F04D80C0D661E342EB7DDEBE7801A97
:101E2000994150EA410608BF0021E4E708BF1CEBD6
:101E3000430F28BF6FF00001DDE70000704700008E
:101E400080B500F007F8024A11001820ABBEFBE78E
:101E50002600020010B500F052F802000023DB4318
:101E600000241068984203D011000220ABBE146019
:101E70005068984203D0111D0220ABBE546010BDC3
:101E8000F0B583B0040000F03AF8A10047183D68AF
:101E90000026F643B54216D100F01AF83D68B54267
:101EA0000FD100BF09A00090002C01D1002000E05C
:101EB000042001900320029069460120ABBE05007A
:101EC0003D6000F014F8280003B0F0BD3A747400CF
:101ED0000C480121BFF35F8FD0E84F3FC0E8421F9D
:101EE000002AF9D1BFF35F8F002BF3D1704705486B
:101EF000BFF35F8F00210170BFF35F8F704702480F
:101F0000704700001905002090010020F8B504007A
:101F100000202078C00740F1D880DFF8E00A01688F
:101F200011F00C01042907D0016811F00C010829F7
:101F300026D10068C00323D54FF480400100B1FAD8
:101F400081F1C9B2490951F00101C9B2012903D196
:101F5000DFF8AC1A096805E00100B1FA81F1DFF899
:101F6000A41A0968B0FA80F010F01F00C140C80739
:101F700040F1AB806068002840F0A780012032E388
:101F8000DFF87C5A286830F480302860286830F404
:101F90008020286000F052FD07004FF4804630009A
:101FA000B0FA80F0C0B2400950F00100C0B2012880
:101FB00001D1286805E03000B0FA80F0DFF8440A6B
:101FC00000683100B1FA81F111F01F01C840C0076B
:101FD00006D500F033FDC01B6528DED3032002E3E5
:101FE0006068B0F5803F04D1286850F480302860E4
:101FF00020E06068002808D1286830F4803028602C
:10200000286830F48020286014E06068B0F5A02FC4
:1020100008D1286850F480202860286850F4803067
:10202000286007E0286830F480302860286830F4A1
:10203000802028606068002823D000F0FFFC0700A3
:102040003000B0FA80F0C0B2400950F00100C0B2D8
:10205000012801D1286805E03000B0FA80F0DFF8EF
:10206000A40900683100B1FA81F111F01F01C840E4
:10207000C0072AD400F0E2FCC01B6528E0D303208F
:10208000B1E200F0DBFC07003000B0FA80F0C0B233
:10209000400950F00100C0B2012801D1286805E0D4
:1020A0003000B0FA80F0DFF85C0900683100B1FA66
:1020B00081F111F01F01C840C00706D500F0BEFC39
:1020C000C01B6528E0D303208DE2207880073DD532
:1020D000DFF82809016811F00C0F07D0016811F032
:1020E0000C01082961D10068C0035ED45FF0804014
:1020F0000100B1FA81F1C9B2490951F00101C9B237
:10210000012903D1DFF8F818096805E00100B1FAE8
:1021100081F1DFF8F0180968B0FA80F010F01F00C4
:10212000C140C80704D52069012801D001205AE226
:10213000DFF8CC0801685FF0F852B2FA82F231F0B1
:10214000F801636913FA02F2114301602078000775
:1021500040F1A580A069002800F0C3805FF0004036
:10216000B0FA80F00121C0B2DFF89C2812EB8002A7
:10217000116000F063FC05005FF080400100B1FADF
:1021800081F10100B1FA81F1DFF878180968B0FA3D
:1021900080F010F01F00C140C8077DD400F04EFC55
:1021A000401B0328E8D303201DE22069002840D00B
:1021B0005FF00040B0FA80F00121C0B2DFF84C2897
:1021C00012EB8002116000F039FC05005FF08040E6
:1021D0000100B1FA81F1C9B2490951F00101C9B256
:1021E000012903D1DFF81818096805E00100B1FAE8
:1021F00081F1DFF810180968B0FA80F010F01F00C4
:10220000C140C80706D400F019FC401B0328DDD3E9
:102210000320E8E1DFF8E80701685FF0F852B2FA5E
:1022200082F231F0F801636913FA02F2114301609E
:102230008CE75FF00040B0FA80F00021C0B2DFF818
:10224000CC2712EB8002116000F0F8FB05005FF074
:1022500080400100B1FA81F1C9B2490951F0010190
:10226000C9B2012903D1DFF89817096805E0010018
:10227000B1FA81F1DFF88C170968B0FA80F010F03C
:102280001F00C140C8077FF561AF00F0D7FB401BBE
:102290000328DCD30320A6E1012000F0D5FB207841
:1022A000400740F1EE80DFF86807016851F0805187
:1022B0000160006810F0805000900098DFF85467CB
:1022C000306850F48070306000F0B8FB0500306872
:1022D000C0052DD400F0B2FB401B6528F7D30320C6
:1022E00081E15FF00040B0FA80F00021C0B2DFF879
:1022F000182712EB8002116000F0A0FB05005FF0D0
:1023000080400100B1FA81F10100B1FA81F1DFF8FA
:10231000F4160968B0FA80F010F01F00C140C80739
:10232000BDD500F08BFB401B0328E8D303205AE106
:10233000DFF8E4562868400840002860286830F03C
:102340000400286000F07AFB07005FF08046300050
:10235000B0FA80F03000B0FA80F0C0B2400950F01E
:102360000200C0B2022801D1286802E0DFF894061A
:1023700000683100B1FA81F111F01F01C840C007B7
:1023800008D500F05BFBC01B41F289318842DCD3E9
:10239000032028E1E068012804D1286850F00100FA
:1023A00028601FE0E068002808D128684008400045
:1023B0002860286830F00400286013E0E0680528F1
:1023C00008D1286850F004002860286850F0010007
:1023D000286007E02868400840002860286830F03E
:1023E00004002860E068002825D000F027FB0700E3
:1023F0003000B0FA80F03000B0FA80F0C0B240098E
:1024000050F00200C0B2022801D1286802E0DFF8D3
:10241000F40500683100B1FA81F111F01F01C840E4
:10242000C0072ED400F00AFBC01B41F2893188425C
:10243000DED30320D7E000F001FB07003000B0FA44
:1024400080F03000B0FA80F0C0B2400950F00200D5
:10245000C0B2022801D1286802E0DFF8A8050068B0
:102460003100B1FA81F111F01F01C840C00708D551
:1024700000F0E4FAC01B41F289318842DED3032028
:10248000B1E0E069002800F0AD80DFF87055286801
:1024900010F00C00082800F0A380E06902286FD13A
:1024A0008020B0FA80F0DFF864650021C0B216EB3E
:1024B0008000016000F0C2FA07004020B0FA80F00E
:1024C000C0B2400950F00100C0B2012803D1DFF8CA
:1024D0003005006805E04020B0FA80F0DFF8240500
:1024E00000684021B1FA81F111F01F01C840C00716
:1024F00006D500F0A3FAC01B0328DED3032072E048
:10250000206AB0F5803F05D1296831F40031A06818
:1025100001432960296831F47411206A0143606A1B
:10252000014329608020B0FA80F00121C0B216EB8F
:102530008006316000F082FA04004020B0FA80F09A
:10254000C0B2400950F00100C0B2012803D1DFF849
:10255000B004006805E04020B0FA80F0DFF8A40481
:1025600000684021B1FA81F111F01F01C840C00795
:1025700038D400F063FA001B0328DED3032032E0D6
:102580008020B0FA80F00021C0B2DFF8802412EB86
:102590008002116000F052FA04004020B0FA80F08E
:1025A000C0B2400950F00100C0B2012803D1DFF8E9
:1025B0005004006805E04020B0FA80F0DFF84404E1
:1025C00000684021B1FA81F111F01F01C840C00735
:1025D00008D500F033FA001B0328DED3032002E005
:1025E000012000E00020F2BD2DE9F04104000D00C3
:1025F0000020DFF82864306810F00700A84280F05F
:10260000BA803068C008C00028433060306810F0DD
:102610000700A84201D001207DE12078800707D57E
:10262000DFF8FC130A6832F0F002A06802430A6087
:102630002078C00740F15681606801281ED14FF410
:1026400080400100B1FA81F1C9B2490951F001019C
:10265000C9B2012903D1DFF8A813096805E0010018
:10266000B1FA81F1DFF89C130968B0FA80F010F03C
:102670001F00C140C80741D401204CE16068022816
:102680001DD14020B0FA80F0C0B2400950F00100E6
:10269000C0B2012803D1DFF86803006805E04020DC
:1026A000B0FA80F0DFF85C0300684021B1FA81F1F4
:1026B00011F01F01C840C00720D401202BE15FF0BA
:1026C00080400100B1FA81F1C9B2490951F001011C
:1026D000C9B2012903D1DFF82813096805E0010018
:1026E000B1FA81F1DFF81C130968B0FA80F010F03C
:1026F0001F00C140C80701D401200CE1DFF82053BE
:1027000029688908890060680143296000F096F90A
:102710000600606801280ED1286810F00C0004281B
:1027200000F0E08000F08AF9801B41F28931884294
:10273000F2D30320EFE0606802280ED1286810F081
:102740000C00082800F0CE8000F078F9801B41F2E0
:1027500089318842F2D30320DDE0286810F00C0FA5
:1027600000F0C08000F06AF9801B41F28931884294
:10277000F3D30320CFE02078800707D5DFF8A0123D
:102780000A6832F0F002A06802430A602078C007AD
:1027900040F19C80606801281DD14FF48040010009
:1027A000B1FA81F1C9B2490951F00101C9B2012957
:1027B00002D19349096805E00100B1FA81F1DFF81F
:1027C00044120968B0FA80F010F01F00C140C80739
:1027D0003FD401209FE0606802281CD14020B0FA5D
:1027E00080F0C0B2400950F00100C0B2012802D10F
:1027F0008348006805E04020B0FA80F0DFF804026A
:1028000000684021B1FA81F111F01F01C840C007F2
:102810001FD401207FE05FF080400100B1FA81F118
:10282000C9B2490951F00101C9B2012902D1744963
:10283000096805E00100B1FA81F1DFF8C811096803
:10284000B0FA80F010F01F00C140C80701D4012089
:1028500061E0DFF8CC71396889088900606801435C
:10286000396000F0EBF88046606801280ED13868C6
:1028700010F00C00042829D000F0E0F8B0EB0800BC
:1028800041F289318842F2D3032044E06068022893
:102890000ED1386810F00C00082817D000F0CEF8E0
:1028A000B0EB080041F289318842F2D3032032E0D4
:1028B000386810F00C0F09D000F0C0F8B0EB080039
:1028C00041F289318842F3D3032024E03068C00804
:1028D000C00028433060306810F00700A84201D0E3
:1028E000012018E02078400706D54D490A6832F4E7
:1028F000E062E06802430A602078000707D5484894
:10290000016831F46051226951EAC201016000207E
:1029100000F0A7F80020BDE8F08118B585B001A847
:1029200040491022FEF78CFC3F480088ADF80000BB
:1029300000200020002000200020304A116811F003
:102940000C00042802D0082802D020E037481FE0FD
:102950004FF47050B0FA80F001AB11F47014C44021
:10296000185DC90310D511684FF48042B2FA82F2A3
:102970006B4611F40031D140595C2C4AB2FBF1F2A4
:1029800001001000484301E02949484300E027487E
:1029900006B010BD10B5FFF7C0FF184909685FF019
:1029A0007062B2FA82F2234B234C11F0F001D14055
:1029B000615CC8401860186810BD80B5FFF7EAFF79
:1029C0000E4909685FF46002B2FA82F21A4B11F400
:1029D000E061D140595CC84002BD80B5FFF7DAFF25
:1029E000064909685FF4E012B2FA82F2124B11F460
:1029F0006051D140595CC84002BD00000410024043
:102A00000010024024100240800442420000424272
:102A10001C100240007000402010024000200240C4
:102A20000410024084680008C611000800127A00F1
:102A300000093D0014000020946800080148006867
:102A4000704700BF0405002011B581B00020FFF7DA
:102A5000F5FF0400FFF7F2FF001B01998842F9D34C
:102A600013BD10B50400FFF795FF4FF47A71B0FB6A
:102A7000F1F000F086F8002221005FF0FF3000F056
:102A80006AF8002010BD000010F00700464B1A68DD
:102A90004FF6FF010A40454951EA00210A431A60F6
:102AA000704741480068C0F302207047012210F0CF
:102AB0001F018A403E4940B2400941F8202070473A
:102AC000020052B2002A08D509013A4A40B210F079
:102AD0000F00104400F8041C03E00901364A40B21C
:102AE0001154704710B410F00700D0F10703052B04
:102AF00001D3042301E0D0F10703041D072C01D208
:102B0000002000E0C01E012414FA03F35B1E1940EC
:102B1000814014FA00F0401E1040084310BC70477A
:102B200080B5411EB1F1807F01D301200EE0401E2F
:102B3000224908600F215FF0FF30FFF7C1FF00203E
:102B40001F49086007201F490860002002BD80B5AA
:102B5000FFF79AFF01BD70B504000D0016000020BC
:102B6000FFF79FFF32002900FFF7BCFF01002000A4
:102B700040B2FFF7A5FF70BD80B540B2FFF796FFEA
:102B800001BD80B5FFF7CCFF02BD042805D10D487B
:102B9000016851F00401016004E00A48016831F065
:102BA00004010160704700000CED00E00000FA0530
:102BB00000E100E018ED00E000E400E014E000E0D7
:102BC00018E000E010E000E080B500F001F801BD81
:102BD000704700000021002801D1012023E090F976
:102BE0002110002902D1002180F82010022180F854
:102BF000211001680A686FF30D12436881680B4366
:102C0000C1680B4301690B4341690B4381690B4365
:102C1000C1690B431A4301680A6000214163012125
:102C200080F821100020704738B5040094F9200086
:102C3000012801D1022027E0012084F82000022091
:102C400084F821002068006840084000256828605A
:102C5000200000F0B9FC2068006850F002002168F4
:102C600008602068006850F004002168086020684F
:102C7000006850F00800216808602068006850F083
:102C8000010021680860002032BD38B50400DFF87B
:102C9000F8582068A8425AD3DFF8F0080068216885
:102CA000DFF8EC28914201D108214EE02168DFF8DD
:102CB000E428914201D1802147E02168DFF8D8283B
:102CC000914202D14FF400613FE02168DFF8CC2847
:102CD000914202D14FF4004137E02168DFF8C0286B
:102CE000914202D15FF400212FE02168DFF8B4287F
:102CF000914202D15FF4000127E02168DFF8A828A3
:102D0000914202D15FF000611FE02168DFF89C284A
:102D1000914201D1082118E02168DFF894289142FE
:102D200001D1802111E02168DFF88828914202D189
:102D30004FF4006109E02168DFF87C28914202D15C
:102D40004FF4004101E05FF40021084059E0DFF852
:102D50006C0800682168DFF83828914201D1082109
:102D60004EE02168DFF82C28914201D1802147E014
:102D70002168DFF82428914202D14FF400613FE03E
:102D80002168DFF81828914202D14FF4004137E062
:102D90002168DFF80C28914202D15FF400212FE076
:102DA0002168DFF80028914202D15FF4000127E09A
:102DB0002168DFF8F427914202D15FF000611FE043
:102DC0002168DFF8E827914201D1082118E0216845
:102DD000DFF8DC27914201D1802111E02168DFF882
:102DE000D427914202D14FF4006109E02168DFF855
:102DF000C827914202D14FF4004101E05FF4002165
:102E00000840002800F0D18020680068000740F1E9
:102E1000CC802068006830F00800216808602068D5
:102E2000A84259D32068DFF86817884201D10820EA
:102E30004EE02068DFF85C17884201D1802047E02F
:102E40002068DFF85417884202D14FF400603FE059
:102E50002068DFF84817884202D14FF4004037E07D
:102E60002068DFF83C17884202D15FF400202FE091
:102E70002068DFF83017884202D15FF4000027E0B5
:102E80002068DFF82417884202D15FF000601FE05D
:102E90002068DFF81817884201D1082018E0206860
:102EA000DFF80C17884201D1802011E02068DFF89C
:102EB0000417884202D14FF4006009E02068DFF86F
:102EC000F816884202D14FF4004001E05FF4002080
:102ED000DFF8EC16086058E02068DFF8B416884286
:102EE00001D108204EE02068DFF8A816884201D101
:102EF000802047E02068DFF8A016884202D14FF416
:102F000000603FE02068DFF89416884202D14FF459
:102F1000004037E02068DFF88816884202D15FF46D
:102F200000202FE02068DFF87C16884202D15FF491
:102F3000000027E02068DFF87016884202D15FF0B9
:102F400000601FE02068DFF86416884201D1082085
:102F500018E02068DFF85816884201D1802011E07F
:102F60002068DFF85016884202D14FF4006009E073
:102F70002068DFF84416884202D14FF4004001E097
:102F80005FF40020DFF83C160860606B50F0010031
:102F90006063042084F82100002084F82000206B66
:102FA000002802D02000216B88472068A8425AD30D
:102FB000DFF8D80500682168DFF8D425914201D1F7
:102FC00004214EE02168DFF8CC25914201D1402157
:102FD00047E02168DFF8C025914202D14FF48061BB
:102FE0003FE02168DFF8B425914202D14FF48041DF
:102FF00037E02168DFF8A825914202D15FF48021F3
:103000002FE02168DFF89C25914202D15FF4800116
:1030100027E02168DFF89025914202D15FF08061BE
:103020001FE02168DFF88425914201D1042118E0D6
:103030002168DFF87C25914201D1402111E021680F
:10304000DFF87025914202D14FF4806109E02168D8
:10305000DFF86425914202D14FF4804101E05FF432
:103060008021084059E0DFF8540500682168DFF846
:103070002025914201D104214EE02168DFF814257A
:10308000914201D1402147E02168DFF80C259142AF
:1030900002D14FF480613FE02168DFF800259142C2
:1030A00002D14FF4804137E02168DFF8F4249142E7
:1030B00002D15FF480212FE02168DFF8E8249142FB
:1030C00002D15FF4800127E02168DFF8DC2491421F
:1030D00002D15FF080611FE02168DFF8D0249142C7
:1030E00001D1042118E02168DFF8C424914201D104
:1030F000402111E02168DFF8BC24914202D14FF455
:10310000806109E02168DFF8B024914202D14FF4D8
:10311000804101E05FF480210840002800F0CE806B
:1031200020680068400740F1C98020680068800678
:1031300005D42068006830F0040021680860206829
:10314000A84259D32068DFF84814884201D10420EE
:103150004EE02068DFF83C14884201D1402047E06F
:103160002068DFF83414884202D14FF480603FE0D9
:103170002068DFF82814884202D14FF4804037E0FD
:103180002068DFF81C14884202D15FF480202FE011
:103190002068DFF81014884202D15FF4800027E035
:1031A0002068DFF80414884202D15FF080601FE0DD
:1031B0002068DFF8F813884201D1042018E0206865
:1031C000DFF8EC13884201D1402011E02068DFF8DD
:1031D000E413884202D14FF4806009E02068DFF8F0
:1031E000D813884202D14FF4804001E05FF4802080
:1031F000DFF8CC13086058E02068DFF894138842A9
:1032000001D104204EE02068DFF88813884201D104
:10321000402047E02068DFF88013884202D14FF455
:1032200080603FE02068DFF87413884202D14FF4D9
:10323000804037E02068DFF86813884202D15FF4ED
:1032400080202FE02068DFF85C13884202D15FF411
:10325000800027E02068DFF85013884202D15FF039
:1032600080601FE02068DFF84413884201D1042009
:1032700018E02068DFF83813884201D1402011E0BF
:103280002068DFF83013884202D14FF4806009E0F3
:103290002068DFF82413884202D14FF4804001E017
:1032A0005FF48020DFF81C130860112084F82100EF
:1032B000E06A002802D02000E16A88472068A8421E
:1032C00054D3DFF8C80200682168DFF8C4229142B5
:1032D00001D1022148E02168DFF8B822914201D1F2
:1032E000202141E02168DFF8B022914202D14FF461
:1032F000007139E02168DFF8A422914202D14FF435
:10330000005131E02168DFF89822914202D15FF448
:10331000003129E02168A34A914202D15FF40011F3
:1033200022E02168A04A914202D15FF000711BE0C7
:1033300021689E4A914201D1022115E021689C4AF0
:10334000914201D120210FE021689A4A914202D195
:103350004FF4007108E02168974A914202D14FF47E
:10336000005101E05FF4003108404DE093480068EF
:103370002168874A914201D1022144E02168854AAF
:10338000914201D120213EE02168834A914202D13D
:103390004FF4007137E02168804A914202D14FF426
:1033A000005130E021687E4A914202D15FF4003141
:1033B00029E021687B4A914202D15FF4001122E0AA
:1033C0002168794A914202D15FF000711BE02168C7
:1033D000764A914201D1022115E02168744A914256
:1033E00001D120210FE02168724A914202D14FF4AD
:1033F000007108E02168704A914202D14FF40051F7
:1034000001E05FF400310840002800F0BB80206834
:103410000068800740F1B68020680068800605D407
:103420002068006830F00200216808602068A84227
:103430004DD320685649884201D1022044E02068DB
:103440005449884201D120203EE0206852498842F8
:1034500002D14FF4007037E020685049884202D111
:103460004FF4005030E020684D49884202D15FF4AB
:10347000003029E020684B49884202D15FF40010F7
:1034800022E020684849884202D15FF000701BE0CA
:1034900020684649884201D1022015E0206844494D
:1034A000884201D120200FE020684249884202D1A1
:1034B0004FF4007008E020683F49884202D14FF481
:1034C000005001E05FF400303D4908604CE02068A6
:1034D0002F49884201D1022044E020682D498842CA
:1034E00001D120203EE020682B49884202D14FF4D0
:1034F000007037E020682949884202D14FF400501B
:1035000030E020682649884202D15FF4003029E08B
:1035100020682449884202D15FF4001022E020682C
:103520002149884202D15FF000701BE020681F49EA
:10353000884201D1022015E020681D49884201D14E
:1035400020200FE020681B49884202D14FF4007010
:1035500008E020681849884202D14FF4005001E089
:103560005FF4003017490860606B6063012084F8E5
:103570002100002084F82000A06A002802D020004A
:10358000A16A884731BD000081000240000402406A
:10359000080002401C00024030000240440002408B
:1035A000580002406C0002408000024008040240C3
:1035B0001C04024030040240440402400000024067
:1035C000040402400400024010B4046863604368CD
:1035D000102B04D103689A600068C16003E003689F
:1035E00099600068C26010BC7047000010B504000C
:1035F000002C01D1012030E0A0690028FFD194F90E
:103600003900002805D1002084F83800200000F09F
:10361000FBFB022084F839002068C06830F40050B9
:103620002168C860200000F06CFB2068006930F45D
:103630009040216808612068406930F02A002168C4
:1036400048612068C06850F400502168C8600020BC
:10365000E063012084F83900002010BD70B505003A
:103660000C001E00002095F93900012801D0222805
:1036700069D1002C03D0100080B2002801D10120B4
:1036800062E095F93800012801D102205CE00120B8
:1036900085F838000020E86395F93900222803D125
:1036A000322085F8390002E0122085F83900AA841A
:1036B000EA8403E0207829684860641CE88C0028CC
:1036C00027D0E88C401EE884A868B0F5805F16D14A
:1036D000330000228021280000F0F6F9002801D0F4
:1036E000032031E020000088C005C00D2968486033
:1036F0002869002801D1A41CE0E7641CDEE7330040
:1037000000228021280000F0DFF90028D2D0032019
:103710001AE0330000224021280000F0D5F90028EB
:1037200001D0032010E095F93900322803D122207E
:1037300085F8390002E0012085F83900002085F87D
:103740003800002000E0022070BD70B505000C00BC
:103750001E00002095F93900012801D012286ED1F1
:10376000002C03D0100080B2002801D1012067E0B6
:1037700095F93800012801D1022061E0012085F887
:1037800038000020E86395F93900122803D132206F
:1037900085F8390002E0222085F83900AA85EA85FB
:1037A00005E028684068C005C00D0880A41CE88DAD
:1037B000002834D0E88D401EE885A868B0F5805F09
:1037C00014D1330000222021280000F07DF90028C8
:1037D00001D0032034E0210028690028E1D02868C6
:1037E000406800F0FF000880641CE0E7330000221E
:1037F0002021280000F068F9002801D003201FE0F4
:103800002869002804D1286840682070641CCEE72D
:103810002868406810F07F002070641CC7E795F9A5
:103820003900322803D1122085F8390002E0012046
:1038300085F83900002085F83800002000E00220DB
:1038400070BD002390F93930012B01D0122B37D1F4
:10385000002903D013009BB2002B01D1012030E0DE
:1038600090F93830012B01D102202AE0012380F8A1
:10387000383081628285C2850021C16390F9391098
:10388000122903D1322180F8391002E0222180F878
:103890003910002180F838100168C96851F480712E
:1038A0000268D1600168496951F001010268516103
:1038B0000168C96851F020010068C160002000E083
:1038C0000220704713B504001300002094F939005A
:1038D000012801D0122840D10198002803D01800F7
:1038E00080B2002801D1012038E094F93800012885
:1038F00001D1022032E0012084F838000198A06252
:10390000A3850020E06394F93900122803D1322006
:1039100084F8390002E0222084F839000FF24110C7
:10392000616B88620FF27510616BC8620FF27910DB
:10393000616B086301A89BB202682068011D606B7F
:10394000FFF772F92068406950F040002168486133
:10395000002084F83800002000E0022016BD1CB5CD
:103960000400002000202068016811F00101206897
:10397000C06810F48070002905D0002803D0E06BE7
:1039800050F00100E06320680168490811F001016E
:103990002068406910F00100002905D0002803D0FC
:1039A000E16B51F00401E16321680968890811F0B5
:1039B0000101002905D0002803D0E16B51F002017C
:1039C000E16321680968C90811F00101002905D0E7
:1039D000002803D0E06B50F00800E0632068016825
:1039E000490911F001012068C06810F02000002989
:1039F00004D0002802D0200000F024F920680168DB
:103A0000C90911F001012068C06810F08000002988
:103A100004D0002802D0200000F0C6F82068016819
:103A2000890911F001012068C06810F040000029E8
:103A300004D0002802D0200000F0EEF8E06B00284F
:103A40000CD02068006800902068406800900098C2
:103A5000012084F83900200000F0AEFB13BD000007
:103A600080B5416A00680068800612D40020C885CD
:103A70000868406930F040000A68506191F93900E7
:103A8000322803D1122081F8390002E0012081F8A8
:103A90003900080000F03AFD01BD000080B5406A21
:103AA00000F000FE01BD000080B5406A0021C18524
:103AB0000021C184012180F83910C16B51F010013F
:103AC000C16300F079FB01BD2DE9F04105000E0056
:103AD00090461C000020FEF7B1FF07004FFA88F85F
:103AE000B8F1000F2ED1286800683040B04258D09D
:103AF00014F1010FF7D0002C04D0FEF79FFFC01B7C
:103B00008442F0D22868C06830F080002968C8601C
:103B10002868C06830F020002968C8602868C0683C
:103B200030F480702968C860286840694008400007
:103B300029684861012085F83900002085F838009F
:103B400003202FE0286800683040B04229D114F1EA
:103B5000010FF7D0002C04D0FEF770FFC01B844289
:103B6000F0D22868C06830F080002968C8602868F2
:103B7000C06830F020002968C8602868C06830F448
:103B800080702968C860286840694008400029683A
:103B90004861012085F83900002085F838000320AD
:103BA00000E00020BDE8F081002190F939101229D1
:103BB00001D032292ED18168B1F5805F10D1016A20
:103BC0000988C905C90D026851600169002903D13E
:103BD000016A891C016209E0016A491C016205E071
:103BE000016A4A1C0262097802685160C18C491E50
:103BF000C184C18C00290BD10168C96831F08001F2
:103C00000268D1600168C96851F040010068C16074
:103C1000002000E00220704780B50168C96831F0DB
:103C200040010268D16090F93910322903D1222174
:103C300080F8391002E0012180F8391000F033FDDE
:103C4000002002BD80B5002190F93910222901D051
:103C5000322954D18168B1F5805F15D1826A01693A
:103C6000002908D101684968C905C90D1180816A18
:103C7000891C81621AE00168496801F0FF01118026
:103C8000816A491C816211E00169002906D1816ABB
:103C90004A1C8262026852680A7007E0816A4A1C04
:103CA00082620268526812F07F020A70C18D491E5A
:103CB000C185C18D002920D10168C96831F020017A
:103CC0000268D16090F93910322903D1122180F8AD
:103CD00039100EE00168C96831F480710268D16062
:103CE000016849694908490002685161012180F869
:103CF000391000F00BFC002002E0002000E0022060
:103D000002BD70B5040000202068016931F4405103
:103D1000E068014320680161A1682069014360698E
:103D200001432068C2683648024011432068C160E0
:103D30002068416931F44071A06901432068416104
:103D40002068304988422DD1FEF747FE0600FEF775
:103D500044FE0500FEF741FE19214E4362689200C1
:103D6000B6FBF2F26423B2FBF3F24D4363689B00AF
:103D7000B5FBF3F301FB00F160688000B1FBF0F0EC
:103D80006421B0FBF1F1642000FB113318013230E3
:103D90006421B0FBF1F010F00F0050EA021021682E
:103DA00088602CE0FEF709FE0600FEF706FE05001F
:103DB000FEF703FE19214E4362689200B6FBF2F251
:103DC0006423B2FBF3F24D4363689B00B5FBF3F34E
:103DD00001FB00F160688000B1FBF0F06421B0FBF2
:103DE000F1F1642000FB1133180132306421B0FB83
:103DF000F1F010F00F0050EA02102168886070BDE9
:103E0000F3E9FFFF0038014030B585B004002068B9
:103E1000DFF8581388422BD1DFF85403016851F4BE
:103E200080410160016811F48041049104990168A6
:103E300051F004010160006810F00400049004983F
:103E40004FF4007000900220019003200390DFF8EF
:103E500024536946280000F027FC4FF4806000904E
:103E600000200190002002906946280000F01CFC10
:103E70002068DFF8041388422BD1DFF800030168C3
:103E800051F400310160006810F40030049004988F
:103E9000DFF8DC02016851F004010160006810F0F5
:103EA0000400049004980420009002200190032054
:103EB0000390DFF8C0526946280000F0F5FB0820A7
:103EC000009000200190002002906946280000F038
:103ED000EBFB2068DFF8A81288424DD1DFF89C0286
:103EE000016851F480210160006810F48020049082
:103EF00004989F48016851F008010160006810F0C3
:103F00000800049004989F48016851F00101016085
:103F1000006810F00100049004984FF48060009055
:103F20000220019003200390974D6946280000F07D
:103F3000BBFB4FF400600090002001900020029035
:103F40006946280000F0B0FB904D914828600020A1
:103F500068600020A8600020E86000202861002040
:103F600068612020A8614FF40050E8612800FEF746
:103F700031FE65636C6265E02068864988422BD11A
:103F80007E48016851F400210160006810F40020AF
:103F9000049004987648016851F0100101600068AF
:103FA00010F01000049004984FF4806000900220FC
:103FB000019003200390784C6946200000F074FBC8
:103FC0004FF40060009000200190012002906946AB
:103FD000200000F069FB35E020687049884231D14B
:103FE0006648016851F480110160006810F4801087
:103FF000049004985E48016851F010010160016866
:1040000011F0100104910499016851F02001016040
:10401000006810F02000049004984FF48050009045
:10402000022001900320039069465B4800F03CFBAE
:10403000042000900020019000200290694658481A
:1040400000F032FB05B030BD10B55648474901605D
:104050005FF4E1344460002181600021C1600021EF
:1040600001610C214161002181610021C161FFF7E3
:10407000BDFA032201212520FEF76DFD2520FEF764
:104080007BFD49483C49016044600021816000217A
:10409000C160002101610C21416100218161002189
:1040A000C161FFF7A3FA042201212620FEF753FD88
:1040B0002620FEF761FD3D48314901604460002142
:1040C00081604FF40051C160002101610C21416108
:1040D000002181610021C161FFF788FA05220121D9
:1040E0002720FEF738FD2720FEF746FD012201219B
:1040F0000D20FEF730FD0D20FEF73EFD2C48254932
:1041000001604FF416414160002181600021C160CF
:10411000002101610C214161002181610021C16107
:10412000FFF764FA002201213420FEF714FD342049
:10413000FEF722FD1F48194901604460002181609B
:104140000021C160002101610C21416100218161D8
:104150000021C161FFF74AFA062201213520FEF74E
:10416000FAFC3520FEF708FD10BD000000380140C4
:104170001810024000080140004400401C1002409A
:104180000048004014100240000C01406004002070
:1041900030000240004C0040001001400050004040
:1041A000001401402003002060030020A003002031
:1041B000E0030020200400207047000000B58FB00D
:1041C000012005905FF480300690002107910221C4
:1041D0000C910D905FF4E0100E9005A8FDF796FE8F
:1041E0000F20009002200190002002904FF4806088
:1041F00003900020049002216846FEF7F5F9FEF7CF
:10420000C9FB4FF47A71B0FBF1F0FEF7BAFC042061
:10421000FEF7BBFC002200215FF0FF30FEF79BFCA5
:104220000FB000BD2DE9F84F00F04CFBFFF7C6FFC3
:10423000FFF70AFF00F058FB0122DFF8E413DFF874
:10424000E4030068FFF7FDFA4FF4FA70FEF7FCFB99
:104250000122DFF8D413DFF8D403FFF733FBDFF8D4
:10426000D0030168096831F0040102681160016837
:10427000096831F008010068016000F02BFC0021A2
:104280004FF48B7000F0E0FC01214FF4057000F05A
:104290005CFC4FF4FA60FEF7D7FBDFF89853002080
:1042A0002870DFF8946302203070DFF890435FF0ED
:1042B00080402060DFF8889395F9001096F900009F
:1042C00000F007F9C9F800004CE01068DFF874133B
:1042D000096800F0DFFE03D20120DFF86C130870DC
:1042E000DFF8643318780128EFD1DFF86003006845
:1042F000116800F0CFFEE8D2002018702878401C2A
:1043000028700CE0D9F80000002808D5DFF8402319
:10431000DFF840030068116800F0BCFED5D3D9F87F
:10432000000001281EDBC74ADFF824331868116833
:1043300000F0B0FE16D21068196800F0ABFE02D291
:104340000120C1490870C04F38780128F3D1C14815
:104350000068196800F09EFEEDD2002038702878C1
:10436000401E287096F9000095F900108842C9D1C6
:1043700002E01420FEF768FBB74DB84EB448006861
:1043800000F09AFEB64AB74BFDF78CFA82468B4690
:10439000306800F091FEB24AB34BFDF783FA524603
:1043A0005B46FDF78DFC00F0ABFE2860AF4F286840
:1043B000216800F0D9FE00F07FFE31F000410200DC
:1043C0000B0092469B46386800F076FE52465B46EC
:1043D000FCF7B2FF09D2D9F800004FF47A614843E4
:1043E00000F002FFA24908601AE02868216800F086
:1043F000BBFE00F061FE31F0004102000B0092466E
:104400009B46386800F058FE52465B46FCF7ACFF0E
:1044100006D800222968206800F0F8FE9449086058
:10442000DFF84C82D8F8000000F028FF01004FF4BC
:104430008B7000F009FC8F4F386800F03DFE0200E1
:104440000B0092469B462868216800F08DFE00F024
:1044500033FE31F0004152465B46FCF76DFF88D2D7
:10446000386800F029FE02000B0092469B46306837
:10447000216800F079FE00F01FFE31F00041524645
:104480005B46FCF759FFBFF474AF386800F014FEC8
:1044900002000B0016001F0077480068216800F03A
:1044A00063FE00F009FE31F0004132003B00FCF7F2
:1044B00043FFBFF45EAF00214FF48B7000F0C4FBEC
:1044C0000020C8F8000000220021002000F09EFE1D
:1044D000FEE780B50A00030052B25BB29A4207DAE7
:1044E00066494FF48B7000F0AFFB5FF0FF300CE0DB
:1044F00040B249B2884207DA4FF47A614FF48B70C8
:1045000000F0A2FB012000E0002002BD38B5474BBF
:1045100001681A68914222D159495A4A1B685B685E
:104520000C78135513783A2B17D10B785B1C0B7052
:104530000B78134413F8013C0A2B10D10B78134469
:1045400013F8023C0D2B0AD100230C7813550122DD
:104550004D4B1A7000220A7001E000220A700068B8
:104560004A4988425AD14A490878002806D12C483D
:10457000007844284CD10120087049E008780128CF
:104580000DD1444A1078002809D1254800783D28EB
:1045900002D1012010703BE00020087038E008785C
:1045A000012823D13B480278012A1FD11C4A1278E6
:1045B0006D2A1BD10022027000780870274801681C
:1045C0002D4A1160224C21680160334D3349280087
:1045D00001F070F800F094FD20600A21002228000C
:1045E00001F06CF800202E49087011E02C48027888
:1045F000062A05DB0022274B1A700A70027007E0BA
:1046000007490978244A0378D1540178491C01707C
:104610000122034903480068FFF713F931BD000088
:10462000130500200000002014050020A003002036
:10463000600400201505002016050020E804002075
:10464000E4040020E068000817050020E468000882
:10465000E0040020DC680008EC040020F0040020E6
:104660009A9999999999E93F9999C93FE8680008F9
:10467000F8040020EC680008F404002060F0FFFF5C
:1046800018050020980400209A010020004C0040EA
:104690001005002011050020CC040020FC0400209F
:1046A0001205002070477047F8B502000020002076
:1046B000002000250020002314E0DFF8C001066878
:1046C00036EA040404600CE0DFF8B4010668A6438F
:1046D000066048688002F0D5DFF8A0010668344320
:1046E00004605B1C102B80F0C78001269E400C6884
:1046F0003440B442F5D1486800282CD001281FD09E
:10470000022822D0032834D011281BD012281FD011
:10471000DFF87071B8421ED0DFF86C71B8421AD061
:10472000DFF86871B84216D0DFF86471B84212D071
:10473000DFF86071B8420ED0574FB8420BD01AE084
:10474000CD6818E0CD682D1D15E0CD68083512E064
:10475000CD680C350FE08868002801D1042507E0FA
:104760008868012802D10825166101E008255661F4
:1047700001E00025FFE7B4F5807F01D2170000E0DB
:10478000171DB4F5807F02D25FEA830C03E0B3F11A
:10479000080C5FEA8C0C0F26D7F800E016FA0CF034
:1047A0003EEA000E15FA0CFC5CEA0E0CC7F800C0DD
:1047B0004868C00095D53948076857F00107076079
:1047C000006810F0010000900098354F1800800834
:1047D00057F820C013F00300C0B2800086403CEAC6
:1047E000060C3048824201D1002619E02E48824250
:1047F00001D1012614E02D48824201D102260FE0AA
:104800002B48824201D103260AE02A48824201D184
:10481000042605E02848824201D1052600E006264C
:1048200013F00300C0B28000864056EA0C0C18005A
:10483000800847F820C04868C00304D51F480668B0
:104840002643066003E01D480668A64306604868E4
:10485000800304D51A4806682643066003E018481A
:104860000668A64306604868C0027FF52DAF04487D
:104870000668264306602CE7F1BD00000C040140E9
:104880000804014000001110000012100000211067
:1048900000002210000031100000321018100240F9
:1048A0000800014000080140000C014000100140D8
:1048B0000014014000180140001C014000040140A8
:1048C0000404014080B50748016851F010010160FF
:1048D0000320FEF73CF90020FEF7C3F800F022FFAA
:1048E000002002BD0020024080B5012000F037F812
:1048F0006420FEF7A9F842F21071012000F04DF893
:104900006420FEF7A1F80221012000F004F86420E1
:10491000FEF79AF801BD3EB504000D0068466749F0
:104920000A22FCF77DFC30358DF806502000C0B21D
:10493000012808D14FF47A7307226946604800685D
:10494000FEF78CFE0AE0E4B2022C07D14FF47A7332
:10495000072269465B480068FEF780FE37BD80B5D8
:104960000100C9B201290AD14FF47A7351A2564904
:104970005348006800F04DF80028F5D10CE0C0B2B3
:10498000022809D14FF47A734AA24F494D48006872
:1049900000F03FF80028F5D101BD78B589B00400DA
:1049A0000D000D21002205AE300000F087FE6846A4
:1049B00046491422FCF744FC2A003FA105A800F058
:1049C000E1FE05A8FCF7E4FB05A90DF107050200CF
:1049D0002800FCF725FC2000C0B201280AD14FF4C2
:1049E000FA6334A269463648006800F012F80028DD
:1049F000F5D10CE0E4B2022C09D14FF4FA632DA2F8
:104A000069463048006800F004F80028F5D10AB083
:104A100070BD2DE9F8430400884615001E000127EB
:104A200000205FF000094046FCF7B2FB4FF4FA6348
:104A3000020092B241462000FEF710FEDFF890809F
:104A40000A2301224846C0B208EB00012000FEF70D
:104A50007CFE4846C0B218F80000002816D0484630
:104A6000C0B2632801DA19F101092800FCF790FBB4
:104A70004946C9B2B1FBF0F200FB1210002805D183
:104A80002900404600F09EFE002805D1761E300029
:104A900080B20028D2D108E000275FFA89F900220D
:104AA0004946404600F00AFE00203800C0B2BDE88A
:104AB000F28300004F4B000025640000B46800083A
:104AC0000000002004000020CC6800087068000886
:104AD0001C02002010B502224FF44071FF2000F0AC
:104AE00065F94FF482724FF48171022000F05EF993
:104AF00005224FF40F71022000F058F94FF48A722A
:104B00004FF40671022000F051F940F21A2440F2ED
:104B100015122100022000F049F940F201124FF471
:104B20000571022000F042F940F2FF124FF4437188
:104B3000022000F03BF90121200000F006F80121DD
:104B40004FF4067000F001F810BD2DE9F84306009F
:104B50000D0000200020002040F20E440122210020
:104B6000022000F094F8DFF8B48498F8070000F011
:104B70005FFA814698F8080000F05AFA070057EAF1
:104B8000091798F8090000F053FA814698F80A00CE
:104B900000F04EFA020052EA0912FFB2D2B252EA13
:104BA0000722B6B24FF40570361A0ED0B61E13D0D7
:104BB000B61E18D0B61E1DD0B61E22D0B61E27D0E7
:104BC000B61E2CD0B61E31D037E04FF6FE70024034
:104BD0006DB215432A0030E04FF6FD7002406DB211
:104BE00052EA450229E04FF6FB7002406DB252EAEC
:104BF000850222E04FF6F77002406DB252EAC5021C
:104C00001BE04FF6EF7002406DB252EA051214E05D
:104C10004FF6DF7002406DB252EA45120DE04FF6DA
:104C2000BF7002406DB252EA851206E04FF67F7007
:104C300002406DB252EAC512FFE792B22100022093
:104C400000F0B4F8BDE8F18380B50B0080B2B0F598
:104C5000897F06D0B0F58A7F0AD0B0F58B7F0ED061
:104C600014E002224FF48971022000F02DF90DE0CA
:104C700002224FF48A71022000F026F906E0022297
:104C80004FF48B71022000F01FF9FFE701BDF8B56A
:104C900088B0002300250023002305AC3A232E0012
:104CA000F6B2A3556D1C2B00DBB2E0546D1C032043
:104CB0002B00DBB2E0546D1C080080B2000A2B0010
:104CC000DBB2E0546D1C2800C0B221546D1C1000F2
:104CD00080B2000A2900C9B260546D1C2800C0B21D
:104CE00022546D1C06210DF1150000F0C4F92900B5
:104CF000C9B260546D1C0020EDB26055002500273C
:104D00006E469DF814003900C9B270547F1C15E03E
:104D10002800C0B2205CC0B2000900F09BF9390045
:104D2000C9B270547F1C2800C0B2205C10F00F0084
:104D300000F090F93900C9B270547F1C2800451C5E
:104D4000C0B20728E4DB0D203900C9B270547F1CC3
:104D50000A203900C9B270547F1C0020FFB2F05500
:104D60006846FCF715FA0F23020092B26946AC4878
:104D7000FEF774FCAB4D00202870FDF75FFE0400C9
:104D800095F9000000280FD1FDF758FE001BA64939
:104D900009888842F4D301202870A44800F028FD37
:104DA00069469DA000F024FD09B0F0BDF8B588B0BB
:104DB00000250023002305AC3A232E00F6B2A355AC
:104DC0006D1C2B00DBB2E0546D1C06202B00DBB207
:104DD000E0546D1C080080B2000A2B00DBB2E054E6
:104DE0006D1C2800C0B221546D1C100080B2000A56
:104DF0002900C9B260546D1C2800C0B222546D1C39
:104E000006210DF1150000F036F92900C9B26054F1
:104E10006D1C0020EDB26055002500276E469DF800
:104E200014003900C9B270547F1C15E02800C0B2CC
:104E3000205CC0B2000900F00DF93900C9B270540D
:104E40007F1C2800C0B2205C10F00F0000F002F9B7
:104E50003900C9B270547F1C2800451CC0B2072815
:104E6000E4DB0D203900C9B270547F1C0A203900E0
:104E7000C9B270547F1C0020FFB2F0556846FCF7A1
:104E800087F90F23020092B269466548FEF7E6FBF8
:104E9000644D00202870FDF7D1FD040095F9000055
:104EA00000280FD1FDF7CAFD001B5F490988884221
:104EB000F4D3012028705D4800F09AFC694656A0A2
:104EC00000F096FC09B0F0BDF8B592B000250024C2
:104ED00000246C463A262F00FFB2E6556D1C2E00CA
:104EE000F6B2A0556D1C10202E00F6B2A0556D1C18
:104EF000080080B2000A2E00F6B2A0556D1C2800F2
:104F0000C0B221546D1C100080B2000A2900C9B241
:104F100060546D1C2800C0B222546D1C5000290042
:104F2000C9B260546D1C180000122900C9B2605447
:104F30006D1C2800C0B223546D1C180000162900F7
:104F4000C9B260546D1C1B142800C0B223546D1CE0
:104F50000B210DF1010000F08EF82900C9B2605458
:104F60006D1C0020EDB260550025002705AE9DF8B0
:104F700000003900C9B270547F1C15E02800C0B28F
:104F8000205CC0B2000900F065F83900C9B2705465
:104F90007F1C2800C0B2205C10F00F0000F05AF80F
:104FA0003900C9B270547F1C2800451CC0B20C28BF
:104FB000E4DB0D203900C9B270547F1C0A2039008F
:104FC000C9B270547F1C0020FFB2F05505A8FCF751
:104FD000DFF80F23020092B205A91148FEF73EFB4D
:104FE000104D00202870FDF729FD040095F9000000
:104FF00000280FD1FDF722FD001B0B4909888842CC
:10500000F4D301202870094800F0F2FB05A902A0A2
:1050100000F0EEFB13B0F0BD25730A0098040020E9
:10502000A00300209A010020980100205C6800087D
:105030000100C9B230390A2902D23038C0B208E0C2
:105040000100C9B24139062902D23738C0B200E0A6
:10505000FF2070470100C9B20A2902DA3030C0B21D
:1050600008E00100C9B20A39062902D23730C0B2BD
:1050700000E0302070470300002002E01A7810188A
:105080005B1C0A00511ED2B2002AF7D1C0B24042C6
:10509000C0B270474FF0807C1CEB400F94BF1CEBFC
:1050A000410F05E040EA010C1CEB0C0F01D28842D5
:1050B000704718BF81427047C0F3C75181B1FF29C3
:1050C00006D0C110400721F0E04101F16051704766
:1050D00041020CBF40F4E0016FF000410020704736
:1050E00000F0004100020AD0B0FA80FC00FA0CF097
:1050F00001F16051A1EB0C5101EBD021400570474B
:1051000001F000428B1AA3F16051B1F5801F0ADB58
:10511000B1F17F6F1FD242EAC102C10071F10041BB
:1051200042EB507070470B15C3F10903212B10D2CD
:10513000890241EA905180020128494141F0004131
:1051400021FA03F0C3F12003994071F1004150416D
:105150007047100070476FF0000013EB103F5CBF0A
:10516000000E42EAC050704790EA010F40F15A83A6
:1051700081F00041421A3CBF801A89184FF0004C60
:10518000C0F3C752FF2A24D0C1F3C75313B3D21AB6
:10519000D2F1190327DD4CEA01214CFA03F321EA8D
:1051A0000303D140C20D4CEA0020401834BF20EA6E
:1051B0000C004CEA5000D20553EA006373EB0C0C70
:1051C00052EB1020420012F1807F38BF7047C00DB3
:1051D000C0057047490212BF9A4200EB5120F8E720
:1051E000D2F11703D9D57047C2175040801AB0FAD0
:1051F00080F10AD08840D1F19D01D20742EAC15125
:10520000020672F1004241EB10207047F8B503002E
:1052100000200020D2B2002A16D11800FFF7A4FF08
:105220000400114D114E3068210000F067FB0700AB
:1052300020002968FFF798FFB16800F05FFB390094
:1052400000F0EAFA2C6002E00021074A11600849E8
:1052500000F0C0FB00D807480749FFF71BFF00D24A
:10526000080090F00040F2BD00050020080000207A
:1052700001007A4500007A4500007AC5C0F3C751A5
:105280007E390EDDC217D1F1200106DD000240F0AB
:105290000040C840104450407047D04380F0004068
:1052A00070470020704700007CB51D4621F0004388
:1052B0001446B3F5801F20F0000209D20026002B0F
:1052C00008BF002A00960ED06A46FBF7FDFF0AE0F1
:1052D000DFF8B46306EB13520092DFF8B033DFF867
:1052E000B0231140194322462B46FCF7DBFA0B464C
:1052F0005A00009C520DA41892B1002C10DD40F20F
:10530000FF72944207DBDFF88C3301F0004040EA83
:10531000030100207CBD6FF31E5343EA04517CBDA2
:1053200020F0000231F000430EBF002A009AFCF783
:1053300033F87CBD2DE9F84C002A82468B461F4687
:1053400000F0F1802AF000043BF0004508BF002C7B
:1053500000F0E98048004015401C02D1090300F02C
:10536000E2800020002ADFF8301340F183805242AF
:105370006F4D7D4405F5DD750824164608E0F207FB
:1053800044BFD5E90023FCF78DFA76080835641E82
:10539000002E18BF002CF2D10D462BF00041044620
:1053A000B1F5801F2AF000000BD20022002904BFB3
:1053B0000028594600920ED06A465946FBF784FFF2
:1053C00009E0B14A02EB1150B14900900BEA010229
:1053D000AE495046114322462B46FCF71DF90B46B9
:1053E0005A00009C520DA4189AB1002C11DD40F215
:1053F000FF72944207DBA74A01F000404FF0000A19
:1054000040EA020B10E06FF31E5343EA045B82464E
:105410000AE020F0000231F000430EBF002A009A9B
:10542000FBF7BAFF82468B462AF000023BF00043AE
:1054300008BF002A61D04FEA4B004015401C0CBF4A
:105440005FEA0B31002E58D050465946934A944B90
:10545000FFF72AFF20F0000431F0004508BF002CC0
:1054600049D04A005215521C01D10B0343D0761E7D
:10547000ECD140E041DD2E4E7E44B4360824154682
:10548000EA0744BFD6E90023FCF70CFA6D10083692
:10549000641E002D01DD002CF2D102460B46504661
:1054A0005946FFF701FF82468B462AF000023BF087
:1054B000004308BF002A2C461FD048004015401C5E
:1054C00001D1090319D0002C17DD50465946754A01
:1054D000754BFFF7E9FE20F0000231F0004308BFF2
:1054E000002A08D04A005215521C01D10B0302D0E9
:1054F000641E002CEBDC82468B462AF000023BF057
:10550000004308BF002A07D04FEA4B004015401C5B
:1055100008BF5FEA0B3106D1AFF300801FB13868D6
:1055200040F00100386050465946BDE8F48C00BF99
:10553000081200002DE9F94987B01F001CBF0020A8
:105540003860079E0C46154607A800F055FAC210B1
:1055500020F0080002F001020128059204952FD1E5
:105560000220009001AB07992246304600F0D6FA9F
:10557000040002D1002000211DE00298FBF7C8FFC3
:10558000022C18DB0DF10C08661EDFF820B1024674
:105590000B4600205946FCF785F9044658F8040BE1
:1055A0000D46FBF7B5FF22462B46FCF789FB761E1E
:1055B00002460B46EDD1049A019C3B46A2184BE0F3
:1055C00002284CD1009001AB07992246304600F0EA
:1055D00081FB040002D10020002119E00298FBF7B2
:1055E00097FF022C14DB0DF10C08661EDFF8C0B02B
:1055F00000225B46FCF756F9044658F8040B0D46AA
:10560000FBF786FF22462B46FCF75AFB761EEFD1AE
:10561000019B0C466200520D03EB020511D0002DD8
:105620000FDD40F2FF72954206DB1A4B01F000409D
:1056300040EA030100200DE06FF31E5444EA0551D7
:1056400008E020F0000431F000450EBF002C1A469F
:10565000FBF7A2FE049A3B46FFF76CFE0CE0032822
:1056600002D100200B4907E0042807BF4FF0FF30AC
:105670006FF0004100200021059A0AB181F000413D
:1056800009B0BDE8F089000002FCFFFF0000E03F28
:10569000FFFF0F800000F07F0000F03F436FAC641D
:1056A0002806C80A3CBF737FDD4F157565CDCD4117
:1056B0000000B041002300223CE7000062F30F220B
:1056C00062F31F42401810F0030308D0C91A1FD319
:1056D000DB0748BF00F8012D28BF20F8022D13007A
:1056E00030B414461546103928BF20E93C00FAD8DA
:1056F000490728BF20E90C0048BF40F8042D890065
:1057000028BF20F8022D48BF00F8012D30BC70479B
:10571000C91818BF00F8012DCB0728BF00F8012DCC
:105720007047000080B51648016851F00101016022
:10573000006810F00100009000980520FDF707FABE
:10574000002200217FF00B00FDF705FA0022002166
:105750007FF00A00FDF7FFF9002200217FF0090029
:10576000FDF7F9F9002200217FF00300FDF7F3F9BE
:10577000002200215FF0FF30FDF7EDF901BD00BF11
:10578000181002400CB430B583B00A4606A9029145
:10579000044600250194009502AB01A9084878440D
:1057A0001E30FAF7C5FC019A157000284EBF04465A
:1057B0000198041B204603B030BC5DF80CFB00BF11
:1057C00087B9FFFF70B50D462C7834B970BD11F85C
:1057D000013F1678B34206D0401C2146FBF7A8FCD7
:1057E00028B101462A4612F8013F002BEFD170BDC7
:1057F0000EB4C0B5024603A800210190009101AB90
:105800000121044878440C30FAF792FC06BC5DF89C
:1058100010FB00BF2710000090EA010F7FF5AAAC33
:1058200081F00041431A4FF000423EBF5340C01A7E
:10583000C91800BFD3095FEAD05C13EB400F34BF37
:10584000B3EB410F40E07CEBD1530CD342EA012192
:1058500022D8D1EB402009D3400A28BF5FEA50018B
:1058600040EBCC507047401A15D04002B0FA80F29D
:10587000521C9040400A4FEA3C23B3EB026384BFC2
:1058800000EB730007E040F400001A16DB07C2F1DA
:105890000102D04018437047182BFCDC31FA03F2A8
:1058A00002FA03F3591A38BF42F00102D2EB40204A
:1058B0003CBF4000ACF1010C5FEACC5CC20572F168
:1058C00000414CEB5020704713EB400F0FD2C94200
:1058D00009D0ACEBD153022B03DB4902172BDDDDE2
:1058E00070479143401AC042D5D10020704713EB56
:1058F000410FD0D36FF0000070470000FF2212EA82
:10590000D05C1DBF12EAD153944593422BE09C44D6
:10591000D30780EA01021A4043EA002043EA01214A
:10592000A1FB0030C04238BF40007CF17F010BDB9F
:10593000FE294ADA5B0842EAC15153EA006373F177
:10594000004C51EB10207047D1F1080CDCF1200124
:105950002FDB5B0810FA01F10B4320FA0CF073F116
:1059600000415041704794451CBF02EAD153934215
:1059700080EA010202F000421DD0400019D0490027
:1059800017D05BB9634514D00902B1FA81F399408D
:10599000BCEB030CC00140F00040C1E70002B0FACC
:1059A00080FC10FA0CF0B3EB0C0CC90141F0004183
:1059B000B6E71000704740000AD0490008D010F147
:1059C000807F94BF11F1807F02E042F0FF4070477A
:1059D000D04370474FF0807C1CEB400F94BF1CEB12
:1059E000410F05E040EA010C1CEB0C0F01D2814293
:1059F000704718BF884270472DE9F84305460C46AA
:105A00002E68002700E0761C307800F067FA002846
:105A1000F9D130782D280CBF08272B2800D1761C0F
:105A2000307840F020016E2927D1707840F02000B6
:105A3000612802BFB07840F020006E2802D02E68A6
:105A4000002746E0F61CB046042798F800002828F6
:105A50003FD118F8019F484600F04AFA0028F8D1D3
:105A6000A9F130000A28F4D398F800005F28F0D09C
:105A700029282ED108F101062BE069292CD1707854
:105A800040F020006E2802BFB07840F02000662869
:105A900002D02E6800271CE016F8030F40F020000B
:105AA000692802BF707840F020006E2847F0030795
:105AB0000FD1B07840F02000692802BFF07840F0A4
:105AC0002000742805D1307940F02000792808BFE3
:105AD000761DF4B126601CE0302802BF707840F0DB
